:02000002D0002C
:1040000000400D00608C0D00000006000D00050151
:08401000040129050000000075
:04401800B0800D0067
:10401C0009480A49884208B505D0094A824202D0AB
:10402C00121A03F041FB0748074A0021121A03F049
:10403C0046FB014808BD00BF54E00320E08A0D0098
:10404C00ACE10320ACE10320F0E7032070B502F0F3
:10405C001DFE074C074BE41AA40800251E46A5427A
:10406C0004D056F8253098470135F8E770BD00BFED
:10407C00E08A0D00A48A0D0000F0F0BE08B500F037
:10408C00C7FCBDE8084002F0CFBD01F02DBB01F02C
:10409C0033BB01F031BB0078B0FA80F040097047B7
:1040AC00012303707047000008B5044902F037FB88
:1040BC0018B1034B03221A70012008BDB1840D0006
:1040CC00FDE1032001F0E2B801F0E8B837B59DF846
:1040DC00184023438DF800303C23054601F008FEC0
:1040EC00284603B030BD000030B58FB01449154CD4
:1040FC0004A801F093FB04A801F0E3FBE06304A81F
:10410C0001F048FC04A884ED100A01F029FC10EE23
:10411C00100A84ED110A03F02DF9CDE90201206C8F
:10412C00E56B03F027F9CDE90001074B074A53F87B
:10413C0025300748402101F0FFFA0FB030BD00BF19
:10414C0044E3032038E20320D4E0032004810D0073
:10415C00B4E2032073B502F01EFC914B186002F020
:10416C002BFC0F280AD007DD1E2803D02D2803D1E5
:10417C00022504E0012502E0032500E00025894C1E
:10418C0000266420267002F017FA07EE900AF8EE6B
:10419C00E77A17EE900AC4ED027A03F0EBF8824A44
:1041AC00CDE900011021814801F0C6FA642002F02B
:1041BC0003FA07EE900AF8EEE77A17EE900AC4EDD0
:1041CC00037A03F0D7F8784ACDE90001102178483A
:1041DC0001F0B2FA642002F0EFF907EE900AF8EE63
:1041EC00E77A17EE900AC4ED047A03F0C3F86E4A2E
:1041FC00CDE9000110216F4801F09EFA642002F015
:10420C00DBF907EE900AF8EEE77A17EE900AC4EDA8
:10421C00057A03F0AFF8644ACDE900011021664835
:10422C0001F08AFA642002F0C7F907EE900AF8EE62
:10423C00E77A17EE900AC4ED067A03F09BF85A4A17
:10424C00CDE9000110215D4801F076FA642002F0FE
:10425C00B3F907EE900AF8EEE77A17EE900AC4ED80
:10426C00077A03F087F8504ACDE900011021544831
:10427C0001F062FA4FF47A7002F09EF9514A206212
:10428C0003461021504801F057FA642002F094F9CB
:10429C0007EE900AF8EEE77A17EE900AC4ED097A69
:1042AC0003F068F8494ACDE900011021484801F0B3
:1042BC0043FA642002F080F907EE900AF8EEE77AF0
:1042CC0017EE900AC4ED0A7A03F054F8364ACDE999
:1042DC00000110213F4801F02FFA642002F06CF924
:1042EC0007EE900AF8EEE77A17EE900AC4ED0B7A17
:1042FC0003F040F8354ACDE900011021364801F0B1
:10430C001BFA642002F058F907EE900AF8EEE77AEF
:10431C0017EE900AC4ED0C7A03F02CF8224ACDE982
:10432C00000110212D4801F007FA642002F044F935
:10433C0007EE900AF8EEE77A17EE900AC4ED0D7AC4
:10434C0003F018F8214ACDE900011021244801F0AE
:10435C00F3F94FF08143A363224B23480022CDE9AC
:10436C0000231021104A01F0E7F9204B3246314668
:10437C00586801F081F908B1FFF7B6FE01262670E6
:10438C0002F009FB606002F0E9FC642068434822FB
:10439C000449063000F092FF304602B070BD00BFF9
:1043AC00D8E1032038E203201D810D00C4E1032075
:1043BC00DCE10320EDE1032004E2032028E20320EA
:1043CC0091E2032026810D0014E203202E810D00C2
:1043DC0080E203201CE30320B0E103200CE3032064
:1043EC00FCE20320000010402CE3032044E30320F4
:1043FC002DE9D0432A4800231A461946406801F09B
:10440C0043F901F0D9F84FF4967440F2E7360027DF
:10441C00002000F063FF4FF000098046002000F000
:10442C005DFFB0EB080061EB09018F4208BF8642CB
:10443C0005D301F0D1F810B901F0B6F8EEE701F0B0
:10444C00CBF8D0B101F0C8F8044628B3002000F036
:10445C0045FF002706464EF65F284FF00009002066
:10446C0000F03CFF801B61EB0701894508BF8045CC
:10447C000CD302F06FFA48B90BE000F0EFFE094BD9
:10448C00186001F091F8013CDCD0C1E702F062FA4F
:10449C0002E001F089F8E2E72046BDE8D08300BFD6
:1044AC0044E30320E4E6032008B501F08DF8064848
:1044BC0000231A461946406801F0EEF84FF47A7062
:1044CC0001F052F9012008BD44E3032010B5074C5C
:1044DC0000F0C4FE2368C01AB0F57A7F04D300F054
:1044EC00BDFE2060012010BD002010BDF4E20320B1
:1044FC0008B5FFF7EBFF18B1BDE80840FFF7E6BFC2
:10450C0001F052F8F5E7000037B501F05DF800F066
:10451C00A5FE43F69725044601F05EF840B100F085
:10452C009DFE001BA84203D8642001F01DF9F3E79F
:10453C000021094B47F23052084600F03FFE4FF481
:10454C007A7001F011F9054B0A221B6801216846AB
:10455C0002F018F903B030BD36810D00A4E203203F
:10456C0038B5046805467CB16368013B63605BB990
:10457C00236820469B689847A368013BA3601BB93E
:10458C0023682046DB689847284638BDF0B5444C74
:10459C00444F454EADF5257D062502F0DFFB482244
:1045AC0028463F4900F082FE3B68219333682093F4
:1045BC00606C02F0DFFECDE91E01206C02F0DAFE29
:1045CC00CDE91C01E36B1A93A06B02F0D3FECDE98D
:1045DC001801606B02F0CEFECDE91601206B02F0E3
:1045EC00C9FECDE91401E06A02F0C4FECDE9120166
:1045FC00A06A02F0BFFECDE91001606A02F0BAFEBB
:10460C00CDE90E01236A0C93E06902F0B3FECDE90B
:10461C000A01A06902F0AEFECDE90801606902F062
:10462C00A9FECDE90601206902F0A4FECDE9040142
:10463C00E06802F09FFECDE90201A06802F09AFE4C
:10464C001A4ACDE900014FF4007124A801F074F866
:10465C00174B18491B7800228DF8002022A824AA99
:10466C00FFF734FD643523A8FFF77AFFFFF740FF0F
:10467C00B5F5CB7F91D102F08EF90F4C206002F092
:10468C006DFB21780520FFF71FFD0C4B01221A70E2
:10469C0000F0E4FD0A4B18600DF5257DF0BD00BF60
:1046AC0038E2032024E2032000E2032043810D00C2
:1046BC00D4E10320AC820D00D8E10320CCE0032030
:1046CC00C0E10320F0B585B0084602AF0E4603F0FA
:1046DC008EF800F1080323F007036D46ADEB030DD4
:1046EC0002AC421C3146204603F09EF89DF808604F
:1046FC004EB900F071FF002837D01E4B1E4A1B78B4
:10470C008DF800602AE0204602F0C4FEC83801286B
:10471C001BD800F061FF60B1164B18491B780022C2
:10472C008DF800203846164AFFF7D0FC381DFFF7ED
:10473C0017FF02F013FB02F02EF9C1B20520FFF7B0
:10474C00C3FC104B00221A700FE000F045FF60B163
:10475C00084B00221B788DF80020224638460A4967
:10476C00FFF7B4FC381DFFF7FBFE0C37AD46BD461A
:10477C00F0BD00BFD4E10320BF820D00E6820D0026
:10478C00D4820D00CCE00320C7820D0030B5224945
:10479C0085B0054601F0C3FF0446C0B11F4B204D48
:1047AC0001241C7002F0DAFA0420FFF78BFC40F0B5
:1047BC000800287002F0D2FA29780420FFF784FC54
:1047CC00184B00221B788DF80020174A1AE0174965
:1047DC00284601F0A4FFE8B1104B114D1C7002F0FB
:1047EC00BDFA0420FFF76EFC20F00800287002F0E0
:1047FC00B5FA29780420FFF767FC0A4B0C4A1B78A2
:10480C008DF800400B4902A8FFF760FC03A8FFF7E6
:10481C00A7FE012005B030BDB1840D00ECE10320F2
:10482C003CE30320D4E10320EC820D00FD820D005B
:10483C00FF820D000F830D0030B5CDB00A2205A903
:10484C00006803F08BF8C4B204F10C03DBB2182B34
:10485C003DD843B207EE903AB8EEE70A03931D4DEC
:10486C0002F03AF802F07AFA21460320FFF72CFC0A
:10487C000024039B184A4FF480710CA800F05CFFD5
:10488C002B7816498DF800400CAA08A8FFF71EFCDF
:10489C0009A8FFF765FE4FF47A7000F065FF02F08F
:1048AC007AF8014608A802F033F8089B0393039AA0
:1048BC002B780A498DF8004006A8FFF707FC07A8DB
:1048CC00FFF74EFE08A801F0B6FE012000E0002024
:1048DC004DB030BDD4E1032014830D0028830D00AE
:1048EC007FB52649054601F01AFF28B92449284608
:1048FC0001F015FF00283FD002F030FA0420FFF73A
:10490C00E1FB204C1D492070284601F008FF0646AB
:10491C00A0B11D4B1D491B7800228DF8002002A868
:10492C001B4AFFF7D3FB03A8FFF71AFE237843F0CB
:10493C0001032370174B01221A7016E01049284608
:10494C0001F0EDFE88B1104B134A1B780F498DF81E
:10495C00006002A8FFF7BAFB03A8FFF701FE23785B
:10496C0003F07E0323700B4B1E7002F0F7F904204A
:10497C002178FFF7A9FB012004B070BDB1840D00B4
:10498C00FD820D003CE30320D4E103200F830D00D6
:10499C002D830D00AEE2032037830D0030B5164D8C
:1049AC00164C17492A7820788FB00E2303FB02127D
:1049BC00009203FB0013134A282104A800F0BCFE4C
:1049CC002B78237000F008FE70B1FFF791FD0E4BB1
:1049DC000E491B7800228DF8002002A804AAFFF7CC
:1049EC0075FB03A8FFF7BCFD02F0DAF804A901F08F
:1049FC0086FD0FB030BD00BFFDE10320D6E10320E2
:104A0C0054E0032049830D00D4E1032057830D00AB
:104A1C00F0B5984C2378013B89B0062B00F2FA8153
:104A2C00DFE813F0910107003C0075009000CC000A
:104A3C005A01914B1B782BB1904B1B78022B01D058
:104A4C00FFF7ACFF8E4B1B784BB100F007FC8D4B86
:104A5C001B68C01A8C4B1B68984200F2D58101F080
:104A6C00ABFF0F2390FBF3F3C3EB0313984207D177
:104A7C0001F091FF854B1B68C01A3C2800F3C781DD
:104A8C00834B93ED0E7A834BD3ED007AB4EEE77A39
:104A9C00F1EE10FA00F2BE81072324E0764B1A786F
:104AAC001D462AB1754B1B78032B01D0FFF776FFFF
:104ABC00FFF750FB064690B9012323702B78002B8F
:104ACC0000F0A881FFF714FD00F086FD002800F02F
:104ADC00A181714B714A1B788DF800600FE001F0D9
:104AEC006BFF10B90423237094E102232370FFF7AA
:104AFC00FFFC694B00221B788DF80020684A69493D
:104B0C0006A8FFF7E3FA07A8FFF72AFD82E15A4B44
:104B1C001B782BB1594B1B78042B01D0FFF73EFFB0
:104B2C0000F05AFD002847D001F03CFF0C2805D1BD
:104B3C0000F052FD10B1002000F06EFDFFF726FDD5
:104B4C000523D0E74C4B1B782BB14C4B1B78052B1A
:104B5C0001D0FFF723FF544B1D7895B90223237026
:104B6C00494B46F2A8121A6000F078FB454B1860CE
:104B7C00FFF7BEFC484B4D4A1B784D498DF8005051
:104B8C00BEE700F06BFB4B4B1B68C01A4AF6C873B0
:104B9C00984240F23F8100F061FB474B4749186057
:104BAC003D4B00221B788DF8002006A8444AFFF7E5
:104BBC008DFA07A8FFF7D4FC012394E72E4B1A7843
:104BCC001D462AB12D4B1B78062B01D0FFF7E6FEB4
:104BDC003C4B1E781F463EBB00F0FEFCA8B12B7868
:104BEC006BB1FFF785FC2C4B374A1B782D498DF8A0
:104BFC00006006A8FFF76AFA07A8FFF7B1FC4FF4AC
:104C0C007A7000F0B1FDFFF74FFC02F0A7F82F4BC4
:104C1C0002201978FFF758FA2D4B00210720197044
:104C2C0002F083F801233B7001F0B5FE294B1968A3
:104C3C000623ADF8163008AB012203F80B2D0291B8
:104C4C004FF4617190FBF1F505FB1100081A8842D5
:104C5C00A8BF084600920DF11601019006A801F0BC
:104C6C00C1FD02232370FFF7C3FB00F0F7FA054BDD
:104C7C001860CFE0FDE10320ECE10320D6E1032036
:104C8C00AEE20320B0E20320C8E00320D8E1032009
:104C9C0038E20320D0E00320D4E1032068830D0028
:104CAC0082830D00E6820D00CCE003209F830D0073
:104CBC00BE830D00C0E10320F8E20320C8830D0081
:104CCC0042810D003DE30320E1830D0000E203204F
:104CDC00D5E10320A4E203204F4B1A781C462AB1DD
:104CEC004E4B1B78072B01D0FFF758FE00F074FCDD
:104CFC00B0B1237873B1FFF7FBFB494B49491B78E3
:104D0C0000228DF8002006A8474AFFF7DFF907A814
:104D1C00FFF726FC4FF47A7000F026FDFFF7C4FB7A
:104D2C00424B00210720197001F0FFFF01F044FEF7
:104D3C003F4BC0F13C003C2242431B68012106A8BA
:104D4C0001F020FD66E0344B1B782BB1334B1B7804
:104D5C00012B01D0FFF722FE00F080FA354B1B68C7
:104D6C0003F5EA433033984254D9334B1B68032B79
:104D7C0016DC00F031FC60B1294B2A491B7800226B
:104D8C008DF8002006A82D4AFFF7A0F907A8FFF719
:104D9C00E7FB4FF4FA6000F0E7FC01F0EFFC39E0C0
:104DAC0001F0F9FD044601F0D9FF0520FFF78AF95F
:104DBC00201AB0F5E15F1CDD00F00EFC60B1184B61
:104DCC0000221B788DF800201D4A164906A8FFF713
:104DDC007DF907A8FFF7C4FB4FF4FA6000F0C4FCA0
:104DEC0001F0BCFF00210220FFF76EF9FFF78CFBEE
:104DFC0010E000F0F1FB0028EED0094B00221B78EC
:104E0C008DF800200F4AE0E70623237027E60323E2
:104E1C00237035E609B0F0BDECE10320D6E10320A8
:104E2C00D4E10320E6820D00F0830D00D5E10320D0
:104E3C00A4E20320F8E2032000E2032007840D0023
:104E4C001B840D0036840D000023042200F09CBB53
:104E5C000246014800F02BBE8F5A0D00F0B5914B65
:104E6C00B9B008AA03F1100516461868596814461B
:104E7C0003C40833AB422246F7D119889B78A37040
:104E8C002D2221800DF133000021874D02F017FCFB
:104E9C000227012107202F7001F036FF04A80024FF
:104EAC0000F0A2FB00237D2218A904A801F049FC04
:104EBC00234622467D490194009418A800F0A4FBD7
:104ECC007B497C48FFF7C0FF23463A467A497B482A
:104EDC0000F05AFB7A497B4809682346042200F00B
:104EEC0053FB79497948FFF7AFFF234601227849F4
:104EFC00784800F049FB78497848FFF7A5FF7849D6
:104F0C007848FFF7A1FF78497848FFF79DFF78496B
:104F1C007848FFF799FF78497848FFF795FF78496B
:104F2C007848FFF791FF78497848FFF78DFF78496B
:104F3C007848FFF789FF78497848FFF785FF78496B
:104F4C007848FFF785FF78497848FFF781FF784963
:104F5C007848FFF77DFF78497848FFF779FF01F033
:104F6C00FDFE2046FFF7AEF8B84219D101F0F6FE6F
:104F7C000220FFF7A7F8504C00222060114602A82F
:104F8C00029200F05BF9029B142B1ED123680133B3
:104F9C00236001F0E3FE21780220FFF795F814E07E
:104FAC0001F0DCFE042202A92046029700F086F9EB
:104FBC00012701F0D3FE3846042202A901370294DE
:104FCC0000F07CF9642FF4D1D0E72368052B07DDC2
:104FDC0001F0C4FE04210220FFF776F8FFF794FAE3
:104FEC0001F0BCFE0320FFF76DF800F10C03DBB2FF
:104FFC00182B9ABF43B200EE103A9FED510A514C58
:10500C0098BFB8EEC00A01F067FC01F0A7FE0520BE
:10501C00FFF758F801F058FC4B4B187001F09EFE4E
:10502C000420FFF74FF8494B1870294B00F0010290
:10503C00C0F3C0001A702070FFF78CF8444B93ED4E
:10504C000E7A444BD3ED007AB4EEE77AF1EE10FA17
:10505C0002D807232B7008E0FFF7CAF928B90123FF
:10506C003D492B70304602F09FFB00F0B5FA08B1B9
:10507C00237843B900F0F2F8384B186004A801F01B
:10508C00DAFA39B0F0BD364B36491B7800228DF870
:10509C00002002A83246FFF719F803A8FFF760FAC0
:1050AC00E8E700BFC4800D00FDE10320D1460D00F0
:1050BC00B4E2032055840D0000E203205C840D0053
:1050CC00C4E0032067840D002CE303206F840D00E3
:1050DC00AEE203207A840D00B0E1032087840D003A
:1050EC001CE3032093840D0080E203209C840D00BC
:1050FC00C4E10320A5840D00DCE10320B3840D0082
:10510C00EDE10320C1840D0004E20320CF840D00E7
:10511C0028E20320DD840D0091E20320EB840D00D6
:10512C00B5400D00F9840D00ED480D0005850D000E
:10513C0099470D0012850D0045480D001F850D0087
:10514C0000000000ECE1032090E203203CE303208C
:10515C0038E20320D0E003202B850D00B0E20320C1
:10516C00D4E103203D850D0038B50D4B00241C60A7
:10517C000C4B01251D7000F0B9F80B4B4FF6FF726C
:10518C001C705C809A80022000F0A8F92146284609
:10519C0000F0BCF929460420BDE8384000F03EB8C8
:1051AC00A4E20320D4E10320A8E2032008B5024BBB
:1051BC001B685B6C019308BD7402030008B5024BBD
:1051CC001B689B6C019308BD7402030008B5024B6D
:1051DC001B689B68019308BD4802030008B5024B8D
:1051EC001B681B69019308BD4802030008B5024BFC
:1051FC001B685B69019308BD4802030008B5024BAC
:10520C001B681B6B019308BD4802030008B5024BD9
:10521C001B685B6C019308BD4802030008B5024B88
:10522C001B685B6E019308BD3402030008B5024B8A
:10523C001B689B6E019308BD3402030008B5024B3A
:10524C001B68DB6E019308BD3402030008B5024BEA
:10525C001B685B68019308BD1802030008B5024B7C
:10526C001B685B69019308BD1802030008B5024B6B
:10527C001B68DB69019308BD1802030008B5024BDB
:10528C001B689B6A019308BD1802030008B5024B0A
:10529C001B68DB6A019308BD1802030008B5024BBA
:1052AC001B681B6B019308BD1802030008B5024B69
:1052BC001B685B6C019308BD1802030008B5024B18
:1052CC001B689B6C019308BD1802030008B5024BC8
:1052DC001B689B6D019308BD1802030008B5024BB7
:1052EC001B68DB6D019308BD1802030008B5024B67
:1052FC001B681B68019308BD2C02030008B5024B08
:10530C001B689B68019308BD2C02030008B5024B77
:10531C001B68DB68019308BD2C02030008B5024B27
:10532C001B681B69019308BD2C02030008B5024BD6
:10533C001B681B6A019308BD2802030008B5024BC9
:10534C001B685B6A019308BD2802030008B5024B79
:10535C001B689B6A019308BD2802030008B5024B29
:10536C001B68DB6A019308BD2802030008B5024BD9
:10537C001B681B6B019308BD2802030008B5024B88
:10538C001B685B6B019308BD2802030008B5024B38
:10539C001B681B6C019308BD2802030008B5024B67
:1053AC001B685B69019308BD6402030008B5024BDE
:1053BC001B689B68019308BD6802030008B5024B8B
:1053CC001B68DB68019308BD6802030008B5024B3B
:1053DC001B68DB69019308BD3002030008B5024B62
:1053EC001B681B6A019308BD3002030008B5024B11
:1053FC001B681B68019308BD3C02030008B5024BF7
:10540C001B68DB68019308BD3C02030008B5024B26
:10541C001B681B69019308BD3C02030008B5024BD5
:10542C001B685B69019308BD3C02030008B5024B85
:10543C001B689B69019308BD3C02030008B5024B35
:10544C001B68DB69019308BD3C02030008B5024BE5
:10545C001B681B6A019308BD3C02030008B5024B94
:10546C001B689B6A019308BD3C02030008B5024B04
:10547C001B681B68019308BD4C02030008B5024B66
:10548C001B681B69019308BD4C02030008B5024B55
:10549C001B685B69019308BD4C02030008B5024B05
:1054AC001B689B69019308BD4C02030008B5024BB5
:1054BC001B68DB69019308BD4C02030008B5024B65
:1054CC001B681B6A019308BD4C02030008B5024B14
:1054DC001B681B68019308BD2002030008B5024B32
:1054EC001B685B68019308BD2002030008B5024BE2
:1054FC001B685B69019308BD2002030008B5024BD1
:10550C001B689B69019308BD2002030008B5024B80
:10551C001B68DB6A019308BD2002030008B5024B2F
:10552C001B68DB6C019308BD2002030008B5024B1D
:10553C001B685B6D019308BD2002030008B5024B8C
:10554C001B689B6D019308BD2002030008B5034B3B
:10555C001B68D3F88830019308BD000020020300BB
:10556C0008B5034B1B68D3F89430019308BD0000B9
:10557C002002030008B5034B1B68D3F8A03001933D
:10558C0008BD00002002030008B5024B1B681B6815
:10559C00019308BD4402030008B5024B1B685B680D
:1055AC00019308BD4402030008B5024B1B689B68BD
:1055BC00019308BD4402030008B5024B1B68DB686D
:1055CC00019308BD4402030008B5024B1B681B691C
:1055DC00019308BD4402030008B5024B1B685B69CC
:1055EC00019308BD4402030008B5024B1B68DB693C
:1055FC00019308BD4402030008B5024B1B681B6AEB
:10560C00019308BD4402030008B5024B1B685B6A9A
:10561C00019308BD4402030008B5024B1B68DB6A0A
:10562C00019308BD4402030008B5024B1B681B6BB9
:10563C00019308BD4402030008B5024B1B68DB6BE9
:10564C00019308BD4402030008B5024B1B685B685C
:10565C00019308BD4002030008B5024B1B689B6810
:10566C00019308BD4002030008B5024B1B68DB68C0
:10567C00019308BD4002030008B5024B1B681B696F
:10568C00019308BD4002030008B5024B1B685B691F
:10569C00019308BD4002030008B5024B1B689B69CF
:1056AC00019308BD4002030008B5024B1B68DB697F
:1056BC00019308BD4002030008B5024B1B681B6A2E
:1056CC00019308BD4002030008B5024B1B681B6B1D
:1056DC00019308BD4002030008B5024B1B685B6BCD
:1056EC00019308BD4002030008B5024B1B681B6800
:1056FC00019308BD1C02030008B5024B1B685B68D4
:10570C00019308BD1C02030008B5024B1B689B6883
:10571C00019308BD1C02030008B5024B1B681B69F2
:10572C00019308BD1C02030008B5024B1B689B6962
:10573C00019308BD1C02030008B5024B1B68DB6912
:10574C00019308BD1C02030008B5024B1B68DB6A01
:10575C00019308BD1C02030008B5024B1B681B6BB0
:10576C00019308BD1C0203000021FFF7BFBE10B55A
:10577C00836804460BB901F04EFBC3689847A368D5
:10578C001BB1032221462046984720461021BDE834
:10579C00104001F03EBB0B68036013B15A68013234
:1057AC005A607047024800230360FFF72FBD00BF0B
:1057BC0040E30320002211464068FFF75DBF002242
:1057CC0011464068FFF778BF002211464068FFF78A
:1057DC0083BF00224068FFF777BF002281F00101F0
:1057EC004068FFF761BF00231A4619464068FFF76F
:1057FC0053BF00231A4619464068FFF745BF0022E5
:10580C0011464068FFF728BF002202214068FFF7CD
:10581C002BBF00231A464068FFF716BFF0B51B4B91
:10582C00036000250F462833182689B04360856035
:10583C00C560324629460446103001F040FF2A4626
:10584C0029467868FFF718FF08B9A0601BE02946C5
:10585C00324602A80095019501F031FF02A9684675
:10586C00ADF80860FFF7A2FC10B10123A3600AE0B9
:10587C00009B019AA360E2600BB90223A36002A90A
:10588C00204600F0A1F8204609B0F0BDB8850D0007
:10589C0038B5084C28252A460021204601F00FFF78
:1058AC004FF0FF336360044B258004225A60034A97
:1058BC001A6038BD4CE3032044E3032084850D00BB
:1058CC007047007D70470000037D1BB18369B3F105
:1058DC00004F02D19FED050A704707EE903A9FEDFD
:1058EC00047AF8EEE77A87EE870A7047000000002A
:1058FC000000C842037D1BB1036AB3F1004F02D113
:10590C009FED050A704707EE903A9FED047AF8EE8A
:10591C00E77A87EE870A7047000000000000C84253
:10592C0070B50D4606460A228168284600F042FEF4
:10593C002C210446284600F0D3FD0A220444F168C9
:10594C00284600F037FE204470BDA0F10400FFF79C
:10595C00E7BF10B52821044601F05BFA204610BDC4
:10596C00037D7BB1436A002B0CDB07EE903ADFED35
:10597C00076A9FED070AB8EEE77AC7EE267A27EE9C
:10598C00800A7047BFEE000A704700BF00FF7F47D8
:10599C000000C842037D7BB1C369002B0CDB07EE12
:1059AC00903ADFED076A9FED070AB8EEE77AC7EE8B
:1059BC00267A27EE800A7047BFEE000A704700BFB8
:1059CC0000FF7F470000C84230B50D4600F11004BF
:1059DC000FCD0FC495E8030084E80300012030BD0F
:1059EC0070470020704710B51021044601F011FAE1
:1059FC00204610BD08B508B1FFF7F5FF08BD10B57E
:105A0C008368044613B1032201469847204610BD13
:105A1C000022026010B54FF69C728280B1F90440EE
:105A2C0084808A8002680C6804600A6010BD10B51E
:105A3C0004460068FFF760FE204610BD38B5C46808
:105A4C00F4B12378022B03D104F10C00FFF7EFFF24
:105A5C00656835B12846FFF7D2FF1021284601F0C2
:105A6C00D8F9A56835B12846FFF7C9FF102128469B
:105A7C0001F0CFF920461421BDE8384001F0C9B936
:105A8C0038BD10B588B00446684600F01BFE694668
:105A9C0004A800F039FE04A8A047044604A800F0AE
:105AAC00CAFD684600F0C7FD204608B010BDF0B531
:105ABC00102485B007460E4615460021224668463E
:105ACC0001F0FDFD002269461046ADF8004002973A
:105ADC0003960195FFF760FD05B0F0BD13B50446C4
:105AEC0091E8050000234B600B602060626001A808
:105AFC0001930093FEF734FD204602B010BDF7B5BC
:105B0C000C4602AD54F8043B45F8083D06460F46DA
:105B1C0001A82146FFF73FFE29463046FFF7DEFF7E
:105B2C0001A8FEF71DFD2046FEF71AFD3846082198
:105B3C0001F06FF9304603B0F0BD13B50B460446C7
:105B4C0003C88DE8030093E8030084E803009DE894
:105B5C00030083E8030002B010BD000038B5002339
:105B6C000446036010200D46FEF78FFA28B101237E
:105B7C0043608360024B0360C5602060204638BDE3
:105B8C00EC850D00826810B50AB901F044F9C368C0
:105B9C00BDE81040184708B5006800F11001FFF788
:105BAC00F1FF08BD826810B50AB901F034F9C36879
:105BBC00BDE81040184708B5006800F11001FFF768
:105BCC00F1FF08BD38B5002383608B6804460D4691
:105BDC002BB102229847EB68E360AB68A3602046C8
:105BEC0038BD0000F0B589B004686846FFF710FFB7
:105BFC0000238DF808304FF00202D4E84F3F002B01
:105C0C0003D1C4E8412F0029F7D102D08DF8083018
:105C1C0063E014F10C0503D069462846FFF7F8FE43
:105C2C00BFF35F8F01236370002004F10803BFF3FF
:105C3C005F8F53E8006F43E80002002AF9D1BFF3ED
:105C4C005F8F002E49D0FFF769FC20B12946304602
:105C5C00FFF798FF3AE0314602A8FFF7B3FFE06880
:105C6C00B4F9105008B101F0A7FD06901020ADF862
:105C7C001C50FEF70AFA0546E8B100278760182089
:105C8C00FEF703FA044688B10146876002A8FFF7C5
:105C9C0054FF049BA268A360059B049206A9E268CA
:105CAC00E36004F110000592FFF7B2FE0D4BEB60C0
:105CBC000D4B2C60AB6006A8FFF7B9FE02A8FFF7EE
:105CCC009EFE002229460948FFF730FC3046FFF7BC
:105CDC0096FE1021304601F09CF86846FFF7A7FEAF
:105CEC0009B0F0BDA35B0D00195E0D007B570D00D4
:105CFC002DE9F04F8BB006460F46904699469DF81D
:105D0C0050A0FFF769FC07AD834630BB4FF62E73EE
:105D1C00059005A92846ADF81830FFF779FE142038
:105D2C00FEF7B3F9044658B1022303700123437004
:105D3C00C0F804B0C0F808B029460C30FFF768FE74
:105D4C003046214640F8044BFFF708FF2846FFF782
:105D5C006EFE05A8FFF76BFE52E000240C23142006
:105D6C006C60AC600793FEF790F9014618B10470B3
:105D7C0044704460846004A80391FFF7EFFE224B4B
:105D8C0008930820FEF781F9044628B1039B40F8DC
:105D9C00043B04A9FFF7FFFC00955FFA8AF34A461F
:105DAC00414638460994FFF727FC20B9039B5B78E2
:105DBC0003F0FF0283B1039B059304A906A8FFF728
:105DCC00EAFC05A93046FFF789FE06A8FEF7C8FBDA
:105DDC0004A8FEF7C5FB13E04FF69C7305A903A8B6
:105DEC000592ADF81830FFF7FDFE05A8FFF71FFE72
:105DFC0005A80999FFF783FE06A8FEF7B1FBDAE7C1
:105E0C0030460BB0BDE8F08F895F0D00022AF8B563
:105E1C00044606D0032A17D0012A22D10B6803604E
:105E2C001FE018200E68FEF730F9054650B13146D8
:105E3C00FFF7C8FE3069B6F9147008B101F0BCFC6C
:105E4C002861AF8225600CE0046854B104F11000A5
:105E5C00FFF7EDFD2046FFF7D2FD1821204600F09C
:105E6C00D8FF0020F8BD38B5002383608B6804464A
:105E7C000D462BB102229847EB68E360AB68A36038
:105E8C00204638BD022A70B5044606D0032A11D02C
:105E9C00012A18D10B68036015E014200E68FEF778
:105EAC00F4F8054620B13146FFF7DDFF337C2B7447
:105EBC00256008E0046834B12046FFF7A0FD1421EA
:105ECC00204600F0A6FF002070BD0000F0B50023B6
:105EDC0087B00C46BFF35F8F50E8006F40E800328C
:105EEC00002AF9D1BFF35F8F002E3FD01846FFF781
:105EFC0015FB074620B121463046FFF753FE2EE036
:105F0C00314601A8FFF7AFFF23788DF8143010202D
:105F1C00FEF7BBF80546D0B187601420FEF7B5F844
:105F2C00044678B18760014601A8FFF706FE039B83
:105F3C00A268A360049B0392E268E3609DF81430AE
:105F4C00049223740A4BEB600A4B2C60AB6001A8E3
:105F5C00FFF755FD002229460748FFF7E7FA3046C0
:105F6C00FFF74DFD1021304600F053FF07B0F0BD98
:105F7C00C35B0D00915E0D007B570D0030B585B0F5
:105F8C0004460D4668461146FFF7B9FD7CB124B2B4
:105F9C0028460DB101F010FC029002A96846ADF83C
:105FAC000C40FFF71FFE02A8FFF741FD1DE0009813
:105FBC008DF808404FF00102D0E84F3FA34203D1C7
:105FCC00C0E8412F0029F7D102D08DF808300CE041
:105FDC0010F10C014FF0010318BF0373BFF35F8F77
:105FEC00043000F8033CFFF771FF01A8FEF7B8FA84
:105FFC0005B030BD002211464068FFF75DBB0022A2
:10600C0011464068FFF768BB00224068FFF75CBB95
:10601C00002281F001014068FFF746BB00231A46BD
:10602C0019464068FFF738BB00231A4619464068EA
:10603C00FFF72ABB002211464068FFF71DBB002268
:10604C0011464068FFF708BB002202214068FFF7A9
:10605C000BBB00231A464068FFF7F6BA024B03222B
:10606C005A60024A1A60704774E3032008860D00D8
:10607C007047F8B5064615460C468F18BC4206D03C
:10608C00336814F8011B9B6830469847F6E728469E
:10609C00F8BD0022007CFFF749B90021007CFFF716
:1060AC004DB90021007CFFF751B90021007CFFF7AE
:1060BC0055B90021007CFFF759B910B514210446DD
:1060CC0000F0A7FE204610BD10B504464FF47A73BD
:1060DC000846A3600021044B207461602360FFF725
:1060EC0055F9204610BD00BF3C860D000021007CF8
:1060FC00FFF744B9704710B51821044600F089FE2B
:10610C00204610BDF0B5037D062B8DB00E4600F178
:10611C0004074FF0000402D000F1080518E00CADA4
:10612C00394605F8304D2F232A460A20FFF736F959
:10613C00284601F05CFB33680246DB682946304692
:10614C0098470FE024B12E21304600F0C9F90444E1
:10615C0015F8011D0A22304600F008FABD4204442D
:10616C00F0D120460DB0F0BD10B5054B0446112200
:10617C0040F8043B002101F0A2FA204610BD00BFFC
:10618C0064860D000346074A10B543F8042B01F151
:10619C00100251F8044B43F8044B9142F9D10A78A0
:1061AC001A7010BD64860D0010B59DF8084044EAC5
:1061BC00032343EA024242EA01610423416003756E
:1061CC0010BD37B50D788B784A78C978009129467F
:1061DC00FFF7EAFF03B030BD014B024A1A6070476B
:1061EC007CE3032022870D00002211464068FFF754
:1061FC0063BA002211464068FFF76EBA002240686D
:10620C00FFF762BA002281F001014068FFF74CBA37
:10621C0000231A4601214068FFF73EBA00231A46B4
:10622C0019464068FFF730BA002211464068FFF764
:10623C0023BA002211464068FFF70EBA0022022151
:10624C004068FFF711BA00231A464068FFF7FCB903
:10625C0038B5054688B104684CB1A3681BB103225C
:10626C002146204698471021204600F0D2FD2846B2
:10627C001421BDE8384000F0CCBD38BD10B1036826
:10628C005B681847704710B503680446BBB1586883
:10629C00FEF79CFF78B923685A7C12B95868FEF750
:1062AC009DFF23685868FEF7A1FF20680023236038
:1062BC0028B1FFF7CDFF206808B1FFF7C9FF2046D2
:1062CC0010BD000038B50C4B03600446D0F8CC016F
:1062DC0008B1FDF7DEFED4F8C45135B12846FFF7FE
:1062EC00D2FF0421284600F094FDA06808B1FFF706
:1062FC00C5FF204638BD00BF54870D0038B50E4C85
:10630C000E4B23600025022304F5E4706360A56046
:10631C00C4F8C451C4F8C851FEF778FF084BC4F850
:10632C00CC5184F8D05123602046064A0649BDE87A
:10633C00384000F069BD00BF80E3032088870D0062
:10634C0054870D00ACE10320D1620D0000231A46E6
:10635C004068FFF779B9002202214068FFF784B941
:10636C00002211464068FFF777B9002211464068B9
:10637C00FFF782B900231A4619464068FFF784B923
:10638C0000231A4619464068FFF786B9002281F0AF
:10639C0001014068FFF788B900224068FFF794B903
:1063AC00002211464068FFF797B900221146406859
:1063BC00FFF782B92DE9F043002495B016460D463F
:1063CC000746FFF7D1FE214620220CA8009401F0CD
:1063DC0076F940230C9321466B460CAA3046FEF707
:1063EC00EDFF0446002844D1024601216868FFF7FE
:1063FC0043F90221804622466868FFF73DF9009E6A
:10640C0081462146002E34D0002932D17368022BEC
:10641C0002D00A2B09D02AE0B8F1000F27D07169FD
:10642C0038460431FFF7CDFE20E0B9F1000F1ED045
:10643C007469112201A801F042F906238DF8143079
:10644C0001AD04F108031834186859682A4603C2D0
:10645C000833A3421546F7D101A906A807ADFFF7EB
:10646C0091FE0FCD3C1D0FC42B6823700121F669E2
:10647C00C8E70098FEF79AFF384615B0BDE8F083E0
:10648C00024B034A1A6000225A60704754E50320FD
:10649C0088870D00F8B506460D468F180024BD42BE
:1064AC000CD0336815F8011B9B68304698470028C0
:1064BC0001DB0444F3E7002C08BF04462046F8BD7A
:1064CC0070B505460C46084649B101F090F92B68A9
:1064DC00024621462846DB68BDE87040184770BD6F
:1064EC0003689B68184738B50D210546FFF7F8FF80
:1064FC000A2104462846FFF7F3FF204438BD38B57F
:10650C000546FFF7DDFF04462846FFF7ECFF204465
:10651C0038BD30B58BB00B4600218DF82410012A04
:10652C0098BF0A220DF12304B3FBF2F505FB1233DD
:10653C0003F0FF03092B94BF30333733DBB2214612
:10654C0004F801392B46002DEED1FFF7B9FF0BB043
:10655C0030BD10B42AB903685DF8044B9B68C9B20E
:10656C001847D2B25DF8044BFFF7D3BFFFF7F1BF6A
:10657C002DE9F04107460E4615462AB90368C9B203
:10658C009B68BDE8F04118470A2A02D1002901DABC
:10659C0004E0D2B2BDE8F041FFF7BBBF2D21FFF7FD
:1065AC009FFF2A46044671423846FFF7B2FF20444B
:1065BC00BDE8F081FFF7DCBF10B5044630B101F047
:1065CC00AFF890FBF4F303FB140010BD10BD10B535
:1065DC000446FFF714FA204610BD00000348044A95
:1065EC0004490023836000F00FBC00BF5CE503206E
:1065FC00ACE10320DB650D00704710B5102104469B
:10660C0000F007FC204610BD70B5084B0360044633
:10661C0000250E4640F80C5FFEF7F0FD3046267163
:10662C00FEF7D4FEA560204670BD00BFBC870D00F0
:10663C000079FEF7D3BE10B504460068FFF75CF88E
:10664C00204610BD10B50446006808B1FFF754F899
:10665C0000232360A360636010BD38B504460D466B
:10666C0000680131FFF750F810B184E821000120D7
:10667C0038BD10B50368044613B143688B4207D28A
:10668C002046FFF7EAFF20B1A3680BB9226813700C
:10669C00012010BD70B50E46114604461546FFF795
:1066AC00E8FF18B92046FFF7CDFF09E02A4631462E
:1066BC00A560206800F0F8FF2268A3680021D1547F
:1066CC00204670BD38B500230446036043608360E8
:1066DC0003730D4639B1084601F089F82946024684
:1066EC002046FFF7D7FF204638BD884210B50B4631
:1066FC00044607D0096819B19A68FFF7CBFF01E08F
:10670C00FFF7A0FF204610BD10B500230446036020
:10671C00436083600373FFF7E8FF204610BD08B5A4
:10672C0082680B4612B919B9012008BD11B903686A
:10673C00187802E0006801F02DF8B0FA80F04009FA
:10674C0008BD70B50E469AB191B185689D4202D8CC
:10675C0000230B7070BD541EED1A0168AC4228BFAB
:10676C002C4619442246304601F05EF8002333557E
:10677C0070BD014600228C20FEF758BD0020FFF7AB
:10678C00F8BF000010B50446084611461A4600230F
:10679C00FEF7B4FE064B00221A704FF6FF725880BB
:1067AC009A801A689B882260A380204610BD00BF87
:1067BC006CE5032010B500240470448000294FF6CA
:1067CC00FF74848007DD0139994209D232F8113007
:1067DC008380012301E002D10223037010BD4180AC
:1067EC0010BD000070B586B016461A460023029301
:1067FC000C9B01930D460B9B009304460A9B314660
:10680C002846FEF7B7FE33462A46014604A8FFF792
:10681C00D1FF064B0498BDF8142018609A801A68B2
:10682C009B8822602046A38006B070BD6CE50320D7
:10683C00044B00204FF6FF72187058809A80FEF7B8
:10684C004DBE00BF6CE50320F0B5144B144F1E6811
:10685C00144B064418683B6806449E428BB01BD010
:10686C000AA801AD40F8286D00F026FE436903F23A
:10687C006C73436104460FCC0FC50FCC0FC5D4F815
:10688C0000E0C5F800E001AD0FCD074C0FC40FCDF3
:10689C000FC43E60C4F800E00BB0F0BDA4E50320CB
:1068AC00A0E503209CE5032074E5032008B5002037
:1068BC00FEF7BAFE28B1FEF78FFE80F00100C0B2E1
:1068CC0008BD012008BD000008B5FFF7BDFF014B56
:1068DC00586808BD74E50320FAEE087AB4EEE70AAE
:1068EC00F1EE10FA0FD4F2EE0C7AB4EEE70AF1EEF8
:1068FC0010FA08DCDFED047A044B20EE270ABDEE1B
:10690C00C00A83ED000A704700006145A4E503202E
:10691C0037B50E4B1B6819440D4B1B68044602A877
:10692C00194440F8041D00F0C7FD00F077FD054642
:10693C0000F05DFF2844002300F8013C2946204666
:10694C00FFF7C0FE204603B030BD00BFA4E5032016
:10695C009CE5032010B50020FEF7B8FC044668B98E
:10696C00FEF7B4FD01280BD12046FEF7E7FD38B940
:10697C00FFF79CFF30B9FEF717FEF9E7012010BDB9
:10698C00002010BDFFF792FF0020FEF79FFC0030A7
:10699C0018BF012010BD08B5FFF7DCFFBDE80840AB
:1069AC00FEF764BC08B5FFF7F6FFFFF74DFF014B90
:1069BC00986808BD74E5032008B5FFF7ECFFFFF7F6
:1069CC0043FF014B586808BD74E50320024B1A685D
:1069DC00024B1A60704700BFF4E0032098E50320D7
:1069EC0070474174704708B5007CFEF737FD20EA0C
:1069FC00E07008BD08B5007CFEF708FD20EAE070E9
:106A0C0008BD08B5007CFEF711FD30EA200028BF58
:106A1C004FF0FF3008BD08B5007CFEF7FFFC30EAF4
:106A2C00200028BF4FF0FF3008BD007CFEF706BDEC
:106A3C0010B51421044600F0ECF9204610BD70B5D9
:106A4C00457C04460E4625B9007CFEF707FD002860
:106A5C0005DD3146207CBDE87040FEF7CFBC2846F2
:106A6C0070BD000010B50446084611460022626055
:106A7C004FF47A72A260054A22600122207462747B
:106A8C001A46FEF7B3FC204610BD00BFF4870D007C
:106A9C00007CFEF7DBBC000038B50C4D296811F00A
:106AAC00010411D12846FDF7F6FA68B1084A094BE2
:106ABC0009482146FFF7D6FF2846FDF7F1FA074AA9
:106ACC000749054800F0A0F9034838BD40E603200B
:106ADC0044E60320BCE50320A8E50320ACE1032039
:106AEC00ED690D0041747047704708B50021007CBA
:106AFC00FEF7D4FC30EA200028BF4FF0FF3008BD71
:106B0C0008B50121007CFEF7C9FC30EA200028BF43
:106B1C004FF0FF3008BD08B5007CFEF7B7FC20EA4B
:106B2C00E07008BD08B5007CFEF7A8FC20EAE07018
:106B3C0008BD007CFEF7C2BC10B51421044600F061
:106B4C0068F9204610BD38B50446007C0D46FEF7AA
:106B5C009DFC002801DC607C28B12946207CFEF7D6
:106B6C00A5FC20EAE07038BD10B504460023636034
:106B7C004FF47A73A360054B2360012308462174FC
:106B8C0063741146FEF772FC204610BD24880D007C
:106B9C0010B514220446002100F091FD204610BDD2
:106BAC0030B50E4D87B001A8FFF7F2FF296811F040
:106BBC00010410D12846FDF76EFA60B101AA2146F6
:106BCC000748FFF7D1FF2846FDF76AFA054A064940
:106BDC00034800F019F9024807B030BDC8E603209D
:106BEC00CCE60320ACE10320F56A0D0008B50C4B94
:106BFC0033B1FFF7D5FF03681B699847002809DC00
:106C0C00084B63B1FFF748FF03681B6998470028DE
:106C1C0003DC08BDAFF30080F2E7AFF3008008BDE2
:106C2C00000000000000000008B5FFF7DFFFFEF7D2
:106C3C0015FB014B186008BDE4E6032007B50023E3
:106C4C0000931A466FF07701FEF78AFC03B05DF8EB
:106C5C0004FB000007B543880A2B08D0502B09D140
:106C6C00094B1B683BB103B05DF804EB1847FFF709
:106C7C00E5FF06E0002300931A466FF07701FEF75C
:106C8C006FFC03B05DF804FBE0E6032010B5FEF7E3
:106C9C00DDFA044600F01CFD074B13B12046AFF3A0
:106CAC00008000210448FEF7C7FC00210348BDE822
:106CBC001040FEF74BBC00BF00000000616C0D00E3
:106CCC0010B504460F48FFF7B3FC28B1A4F10B0331
:106CDC00022B01D8002010BD00F054F8FFF706FA83
:106CEC0008B1012CF6D9FFF7D7FEFFF7D1FE18B18A
:106CFC00A4F10903012BEDD9232C8CBF002001201A
:106D0C0010BD00BF08E70320232838B504460D4604
:106D1C000AD8FF2908D0FFF7D3FF28B1294620460F
:106D2C00BDE83840FEF7EABA38BD38B504460D4622
:106D3C00FEF7ECFAFF2810D0062804D84D2323FACE
:106D4C0000F0C30709D42046FFF7BAFF28B1294643
:106D5C002046BDE83840FEF7E1BA38BD10B5074C07
:106D6C002368DB0708D42046FDF795F920B1FEF720
:106D7C0085FA2046FDF794F9014810BDE8E603209A
:106D8C00ECE6032038B50B4D296811F001040FD146
:106D9C002846FDF780F958B121460748FFF794F9CA
:106DAC002846FDF77DF9054A0549034800F02CF803
:106DBC00014838BDF0E60320F4E60320ACE10320E3
:106DCC007D600D0070B50C4C0C4E0D4D0021204615
:106DDC00FFF71AFC20460B4C3246294600F014F8FB
:106DEC0001212046FFF710FC324629462046BDE81B
:106DFC00704000F009B800BF08E70320ACE10320A5
:106E0C0005660D0018E703200B460146184600F0F6
:106E1C0045BBFDF73CB908B5FEF796FC244B1A6848
:106E2C00D0075CBF01221A60224B1A68D1075CBFE5
:106E3C0001221A60204B1A68D2075CBF01221A602B
:106E4C001E4B1A68D0075CBF01221A601C4B1A68D3
:106E5C00D1075CBF01221A601A4B1A68D2075CBFBB
:106E6C0001221A60184B1A68D0075CBF01221A6005
:106E7C00164B1A68D1075CBF01221A60144B1A68B2
:106E8C00D2075CBF01221A60124B1A68D0075CBF94
:106E9C0001221A60104B1A68D1075CBF01221A60DC
:106EAC000E4B1A68D2075CBF01221A60704700BFF4
:106EBC0054E7032050E703204CE7032048E7032066
:106ECC0044E7032040E703203CE7032038E7032096
:106EDC0034E7032030E703202CE7032028E70320C6
:106EEC00184B1A68D1075CBF01221A60164B1A683E
:106EFC00D2075CBF01221A60144B1A68D0075CBF22
:106F0C0001221A60124B1A68D1075CBF01221A6069
:106F1C00104B1A68D2075CBF01221A600E4B1A681C
:106F2C00D0075CBF01221A600C4B1A68D1075CBFFA
:106F3C0001221A600A4B1A68D2075CBF01221A6040
:106F4C00704700BF74E7032070E703206CE7032051
:106F5C0068E7032064E7032060E703205CE7032075
:106F6C0058E70320184B1A68D1075CBF01221A603E
:106F7C00164B1A68D2075CBF01221A60144B1A68B0
:106F8C00D0075CBF01221A60124B1A68D1075CBF94
:106F9C0001221A60104B1A68D2075CBF01221A60DA
:106FAC000E4B1A68D0075CBF01221A600C4B1A6892
:106FBC00D1075CBF01221A600A4B1A68D2075CBF6A
:106FCC0001221A60704700BF94E7032090E703206A
:106FDC008CE7032088E7032084E7032080E7032065
:106FEC007CE7032078E70320244B1A68D0075CBFAA
:106FFC0001221A60224B1A68D1075CBF01221A6069
:10700C00204B1A68D2075CBF01221A601E4B1A680B
:10701C00D0075CBF01221A601C4B1A68D1075CBFF9
:10702C0001221A601A4B1A68D2075CBF01221A603F
:10703C00184B1A68D0075CBF01221A60164B1A68ED
:10704C00D1075CBF01221A60144B1A68D2075CBFCF
:10705C0001221A60124B1A68D0075CBF01221A6019
:10706C00104B1A68D1075CBF01221A600E4B1A68CC
:10707C00D2075CBF01221A60704700BFC4E703202F
:10708C00C0E70320BCE70320B8E70320B4E70320E4
:10709C00B0E70320ACE70320A8E70320A4E7032014
:1070AC00A0E703209CE7032098E7032081F0004130
:1070BC0002E000BF83F0004330B54FEA41044FEAD1
:1070CC00430594EA050F08BF90EA020F1FBF54EA6C
:1070DC00000C55EA020C7FEA645C7FEA655C00F008
:1070EC00E2804FEA5454D4EB5555B8BF6D420CDDD9
:1070FC002C4480EA020281EA030382EA000083EA5C
:10710C00010180EA020281EA0303362D88BF30BDFB
:10711C0011F0004F4FEA01314FF4801C4CEA113151
:10712C0002D0404261EB410113F0004F4FEA0333B0
:10713C004CEA133302D0524263EB430394EA050F3B
:10714C0000F0A780A4F10104D5F1200E0DDB02FAAA
:10715C000EFC22FA05F2801841F1000103FA0EF23E
:10716C00801843FA05F359410EE0A5F120050EF104
:10717C00200E012A03FA0EFC28BF4CF0020C43FA35
:10718C0005F3C01851EBE37101F0004507D54FF042
:10719C00000EDCF1000C7EEB00006EEB0101B1F592
:1071AC00801F1BD3B1F5001F0CD349085FEA3000D8
:1071BC004FEA3C0C04F101044FEA445212F5800FE3
:1071CC0080F09A80BCF1004F08BF5FEA500C50F180
:1071DC00000041EB045141EA050130BD5FEA4C0C63
:1071EC00404141EB010111F4801FA4F10104E9D1EC
:1071FC0091F0000F04BF01460020B1FA81F308BFE3
:10720C002033A3F10B03B3F120020CDA0C3208DDAE
:10721C0002F1140CC2F10C0201FA0CF021FA02F189
:10722C000CE002F11402D8BFC2F1200C01FA02F1F9
:10723C0020FA0CFCDCBF41EA0C019040E41AA2BF1E
:10724C0001EB0451294330BD6FEA04041F3C1CDAE6
:10725C000C340EDC04F11404C4F1200220FA04F006
:10726C0001FA02F340EA030021FA04F345EA0301B0
:10727C0030BDC4F10C04C4F1200220FA02F001FA72
:10728C0004F340EA0300294630BD21FA04F02946F4
:10729C0030BD94F0000F83F4801306BF81F480118D
:1072AC000134013D4EE77FEA645C18BF7FEA655C00
:1072BC0029D094EA050F08BF90EA020F05D054EAD2
:1072CC00000C04BF1946104630BD91EA030F1EBFD7
:1072DC000021002030BD5FEA545C05D140004941DB
:1072EC0028BF41F0004130BD14F580043CBF01F5CE
:1072FC00801130BD01F0004545F0FE4141F47001B4
:10730C004FF0000030BD7FEA645C1ABF194610468E
:10731C007FEA655C1CBF0B46024650EA013406BF8F
:10732C0052EA033591EA030F41F4002130BD00BF4E
:10733C0090F0000F04BF0021704730B54FF480640B
:10734C0004F132044FF000054FF0000150E700BF8C
:10735C0090F0000F04BF0021704730B54FF48064EB
:10736C0004F1320410F0004548BF40424FF00001D8
:10737C003EE700BF42004FEAE2014FEA31014FEA1B
:10738C0002701FBF12F07F4393F07F4F81F060516A
:10739C00704792F0000F14BF93F07F4F704730B5D9
:1073AC004FF4607401F0004521F0004120E700BF6C
:1073BC0050EA010208BF704730B54FF000050AE0F3
:1073CC0050EA010208BF704730B511F0004502D5F4
:1073DC00404261EB41014FF4806404F132045FEAF6
:1073EC00915C3FF4DCAE4FF003025FEADC0C18BF9B
:1073FC0003325FEADC0C18BF033202EBDC02C2F191
:10740C00200300FA03FC20FA02F001FA03FE40EA22
:10741C000E0021FA02F11444C1E600BF094B70B50D
:10742C001C68256C06463DB91A20FEF75DF91A2238
:10743C002064294600F043F9216C3046BDE87040C9
:10744C0000F002B85CE1032010B50C4641690369F9
:10745C00826986B001F26C710491016803914168F4
:10746C00029181680191C1680091074903EB4303C4
:10747C000B44064902EB42020A4420460449FEF73B
:10748C004BF9204606B010BD61880D004C880D00EC
:10749C0085880D000A22002100F060BA10B5054C59
:1074AC0013462CB10A4601460220AFF3008010BDF2
:1074BC00204610BD0000000038B5074B1C68E36B7C
:1074CC0005461BB92420FEF70FF9E063E16B284653
:1074DC00BDE8384000F002B85CE103202DE9F04132
:1074EC000C46804600F040FD21460746404600F021
:1074FC003FFD466906F26C76B307044605D164225B
:10750C0096FBF2F302FB13634BB94FF4C87596FB71
:10751C00F5F305FB1365B5FA85F35B0900E0012370
:10752C005F4A302505FB032500F052FB00F052FBAF
:10753C005C4B1B68F3B17B689E4205D13968D8F867
:10754C000030FA6941B90AE0304600F099FA002897
:10755C00F4D14FF0FF330DE0934208DB01E093428E
:10756C0007DABA6B9342ACBF0023012302E000237D
:10757C0000E001232362236A012B0CBFF96B396AEB
:10758C004FF461633C2091FBF3F603FB1613616827
:10759C0093FBF0F200FB12302368891AA268616039
:1075AC001B1A921B3B2B2360A26003DD013161602F
:1075BC003C3B04E0002B03DA013961603C3323606F
:1075CC0063683B2B03DD0132A2603C3B04E0002BE3
:1075DC0003DA013AA2603C336360A368172B22DD07
:1075EC00E2690132E261A2690132062AC8BF0022B7
:1075FC00A261E268183B0132A3602369E26055F88E
:10760C0023108A4246DD01330C2B0CBF63692361C6
:10761C00A2EB0102E26001BF01330022226163612F
:10762C0008BFE26136E0002B34DAE269013AE2612C
:10763C00A269013A48BF0622A261E2681833013AF6
:10764C00E260A36032BB2369013B01D423611DE0DE
:10765C000B23236163695A1E12F0030F626103F25C
:10766C006B7305D1642193FBF1F201FB12324AB921
:10767C004FF4C87193FBF1F201FB1233B3FA83F3AD
:10768C005B0900E0012303F5B673E361236955F848
:10769C002330E36000F09DFA2046BDE8F08100BF86
:1076AC00088A0D00E4E7032010B5431E0A449142FA
:1076BC0004D011F8014B03F8014FF8E710BD024458
:1076CC000346934202D003F8011BFAE7704700000F
:1076DC0038B5124B1C68A36B0546D3B91820FEF7BE
:1076EC0003F843F20E33A06303804AF6CD33438094
:1076FC0041F2342383804EF26D63C3804DF6EC630C
:10770C000381052343810B23838101220023C0E9DC
:10771C000423A36B00221D615A6138BD5CE1032078
:10772C00194B10B51C68A36BD3B91820FDF7DCFFFF
:10773C0043F20E33A06303804AF6CD33438041F20B
:10774C00342383804EF26D63C3804DF6EC6303816A
:10775C00052343810B23838101220023C0E90423E9
:10776C00A16B0A4C0B694869094A5C4302FB004057
:10777C00A3FB02230132034443F10003C1E90423B8
:10778C0023F0004010BD00BF5CE103202DF45158E4
:10779C002D7F954C10F8012B11F8013B012A28BFC5
:1077AC009A42F7D0D01A7047034611F8012B03F810
:1077BC00012B002AF9D17047024B0146186800F0E2
:1077CC0003B800BF5CE1032070B5064608460C46C2
:1077DC0000F00DF8451C29463046FDF7BDFF064666
:1077EC0018B12A462146FFF75FFF304670BD0346AD
:1077FC0013F8012B002AFBD1181A0138704730B549
:10780C0082B1451E013915F8013F11F8014FA34211
:10781C0006D1EC431444E04201D0002BF3D11C46BA
:10782C00181B30BD104630BD10B5034642B111F8DF
:10783C00014B03F8014B013A002CF7D11A4400E03C
:10784C0010BD934202D003F8014BFAE710BD0000C3
:10785C002DE9F04780464048D0F800900F463D4651
:10786C0015F8014B09EB0400407800F0080000F01B
:10787C00FF0608B12F46F2E72D2C03D1BD1C7C78F6
:10788C00012603E02B2C04BF7C78BD1C13B1102BFC
:10789C000AD15BE0302C57D1287800F0DF00582853
:1078AC004DD16C7810230235002E14BF4FF0004CD4
:1078BC006FF0004C0027BCFBF3FA384603FB1ACCE4
:1078CC0009EB040E9EF801E01EF0040F01D0303CD1
:1078DC000BE01EF0030E1BD0BEF1010F0CBF4FF0DE
:1078EC00370E4FF0570ECEEB0404A34210DDB7F168
:1078FC00FF3F0AD0504506D801D1644503DC03FB99
:10790C000040012701E04FF0FF3715F8014BD7E796
:10791C007B1C0CD1002E4FF0220314BF4FF0004003
:10792C006FF00040C8F800302AB9BDE8F08706B106
:10793C00404272B107B1691E1160BDE8F087302476
:10794C00002BB1D10823AFE70A23ADE7302CA3D02D
:10795C00AAE7BDE8F08700BFF8E0032013460A460B
:10796C00014602480068FFF773BF00BF5CE10320CB
:10797C002DE9F04780463C48D0F800900E4635463D
:10798C0015F8014B09EB0400407800F0080000F0FA
:10799C00FF0708B12E46F2E72D2C03D1B51C7478E5
:1079AC00012703E02B2C04BF7478B51C13B1102BEA
:1079BC000AD153E0302C4FD1287800F0DF00582842
:1079CC0045D16C78102302354FF0FF3C0026BCFBF0
:1079DC00F3FC03FB0CFA6FEA0A0A304609EB040EBF
:1079EC009EF801E01EF0040F01D0303C0BE01EF0BD
:1079FC00030E1AD0BEF1010F0CBF4FF0370E4FF033
:107A0C00570ECEEB0404A3420FDD002E08DB6045BD
:107A1C0006D801D1544503DC03FB0040012601E0EC
:107A2C004FF0FF3615F8014BD8E7002E07DA22236A
:107A3C00C8F800304FF0FF302AB9BDE8F08707B125
:107A4C00404272B106B1691E1160BDE8F087302466
:107A5C00002BB9D10823B7E70A23B5E7302CABD0FC
:107A6C00B2E7BDE8F08700BFF8E0032013460A46F2
:107A7C00014602480068FFF77BBF00BF5CE10320B2
:107A8C002DE9F74F044600F06FFA40F2B1739C42B7
:107A9C0040F396806FF4F663E318A4F2B2729B1075
:107AAC0040F26D1505FB0235A4F26D726FF06303A5
:107ABC0092FBF3F36FF4C8622B44A5184FF4C87211
:107ACC0095FBF2F51D44642394FBF2F794FBF3F65B
:107ADC0002FB174703FB164600F13803B7FA87FE83
:107AEC00019304F0030344604FEA5E1E01460093C9
:107AFC004FF0070C0B7A4A2B0ED14B69009AEC18FD
:107B0C0002B906B927B93B2BD4BF0023012300E0EF
:107B1C0000232344013B3FE0442B02D14B692B440F
:107B2C003AE0009B2BB9002E0CBFF0464FF0010839
:107B3C0000E0F046244BCC68302202FB0838A8F158
:107B4C00040AA9460123A34204DA5AF804BF0133FC
:107B5C00D944F8E709F1040393FBFCFBCBEBCB0A0C
:107B6C00012CCAEB030A4B69B8BF012404F1804411
:107B7C00B3EB0A0A0B6904F1FF3403F1FF3348BF7E
:107B8C000AF1070AC3EBC30358F824405344A34239
:107B9C0001DB073BFBE74B448C690C4A02FB0343BC
:107BAC000C6A234441F81C3F019B9942A2D1C36942
:107BBC00826B9342ACBF002301230360012000E0E1
:107BCC00002003B0BDE8F08F088A0D008051010041
:107BDC0070477047014B186800F002B85CE1032055
:107BEC002DE9F04F8DB0074600F0BEF9B049B14E0B
:107BFC000446384600F0B0F9054660B9AE4BAF4AC2
:107C0C001860AF4B1860AF4B30681A605A60FDF7C4
:107C1C0073FD356048E1316879B93068FDF76CFD6A
:107C2C002846FFF7E4FD411C3846FDF795FD306012
:107C3C0048B12946FFF7B8FD05E0FFF7ABFD00287A
:107C4C0000F03281E9E72B789F4AA0493A2B08BF14
:107C5C0001350AAE33462846FDF766FD002840F391
:107C6C0023810A9BEF18EB5C2D2B03D101374FF0CE
:107C7C00FF3503E02B2B08BF013701250DF1200A3E
:107C8C000DF11E0B4FF000080396CDF808A00196DD
:107C9C00CDF800B0334607AA8D49ADF81E803846A2
:107CAC00ADF82080FDF740FD404540F3FD80BDF868
:107CBC001E20BDF82030DFF824923C2101FB02335A
:107CCC00BDF81C204FF4616101FB02335D4325625A
:107CDC007C4D7D4B2B600A9B7C491F444A463346A6
:107CEC003846FDF721FD404508DC2B686B60724B74
:107CFC00226A1A60724BC3F80080D5E00A9BC5F863
:107D0C000490FD18FB5C2D2B03D101354FF0FF3790
:107D1C0003E02B2B08BF013501270023ADF81C30E5
:107D2C00ADF81E30ADF820300A930396CDF808A0BC
:107D3C000196CDF800B0334607AA65492846FDF7F1
:107D4C00F3FC002804DC236AA3F56163E3630EE013
:107D5C00BDF81E20BDF820303C2101FB0233BDF8DC
:107D6C001C204FF4616101FB02335F43E7630A9B04
:107D7C0027461D444FF000092B782C2B08BF0135EA
:107D8C0095F80080B8F14D0F26D10DF12603029322
:107D9C0009AB00930396019633460DF122024D492F
:107DAC002846FDF7C1FC03287ED1BDF822104B1EDE
:107DBC000B2B79D8BDF82420531E042B74D8BDF896
:107DCC002630062B70D887F80880F9603A617B6101
:107DDC000A9B05EB03082AE0B8F14A0F06BF0135F0
:107DEC00434644230A220BA928460593FFF73EFE7F
:107DFC00DDF82C80ADF826004545059B14D14D23AC
:107E0C00B9F1000F07D123720323E360022323612E
:107E1C00C4F814900BE084F824300B23A3620123E4
:107E2C00E3620023236302E080B23B727861022399
:107E3C00ADF81C300023ADF81E30ADF820300A939D
:107E4C0098F800302F2B0BD10396CDF808A0019693
:107E5C00CDF800B0334607AA1F494046FDF764FC35
:107E6C00BDF81E20BDF820303C2101FB0233BDF8CB
:107E7C001C204FF4616101FB0233BB610A9D09F1C7
:107E8C000109B9F1020F454407F11C077FF474AFE7
:107E9C006068FFF7F5FD084B226A1A60E36B9B1ACA
:107EAC00074A18BF012313600DB0BDE8F08F00BF67
:107EBC00688A0D00E0E70320E8E703206B8A0D00D9
:107ECC00E4E7032060E10320D3E703206F8A0D0071
:107EDC00928A0D007E8A0D00918A0D00C8E703205E
:107EEC002DE9F84F07468B46904600F0D9F8194B10
:107EFC001D689A463DB15C46234613F8012B42B1EE
:107F0C003D2A1C46F8D1384600F0CBF80020BDE8DD
:107F1C00F88FCBEB0404A94659F8040B0028F2D0D7
:107F2C0022465946FFF76BFC88B959F8043C1E19D8
:107F3C001B5D3D2B0BD1DAF80030ED1AAD10384635
:107F4C00C8F8005000F0ADF8701CBDE8F88F4D4635
:107F5C00E1E700BFA8E1032007B501AAFFF7C0FFC6
:107F6C0003B05DF804FB00000048704768E1032093
:107F7C000268474BF0B592FBF3F403FB1422002A82
:107F8C00BCBF02F5A83202F5C0724FF4616004F573
:107F9C002F2492FBF0F300FB13224FF03C00ACBFFC
:107FAC0004F66C2404F66B248B6092FBF0F300FB5C
:107FBC0013224B600A600723E21C92FBF3F3C3EB22
:107FCC00C303D31A8B61334B334D94FBF5F503FB91
:107FDC00054448F6AC62B4FBF2F2224440F2B457CA
:107FEC00B4FBF7F3D21A2D48B4FBF0F048F69466C4
:107FFC00131AB3FBF6F6344440F26D12B3FBF2F0F5
:10800C00B3FBF7F3E31A02FB1033992403EB83025F
:10801C000232B2FBF4F20A2A04FB02F404F1020667
:10802C004FF00504B6FBF4F434BF02266FF00906DA
:10803C0016444FF4C87202FB05055F1C012E98BF55
:10804C000135B3F5997FA7EB040702D3A3F5997219
:10805C0014E0820705D16424B0FBF4F204FB120295
:10806C004AB94FF4C872B0FBF2F402FB1400B0FA38
:10807C0080F2520900E001223B331A44A5F26C75E0
:10808C000023CA614D610E61CF600B620846F0BDE2
:10809C00805101004FC5FDFFB13A0200B03A020019
:1080AC00704770471D400D0059400D0085400D0074
:1080BC0089400D00000000005374617274757020CB
:1080CC005375636365737366756C00000000000084
:1080DC000000000000000000000000000000000094
:1080EC000000000000000000000000000000000084
:1080FC000000000000000000257320533A25322EAA
:10810C00306625252C20513A25322E306625252027
:10811C000025342E316620252500256920746970D0
:10812C00730025342E316620430041542B434655B1
:10813C004E3D31360D0A007B22536F696C6D6F69B1
:10814C00737475726531223A25342E31662C2022D7
:10815C00536F696C6D6F69737475726532223A2551
:10816C00342E31662C2022536F696C6D6F697374D9
:10817C0075726533223A25342E31662C2022536FCA
:10818C00696C6D6F69737475726534223A25342E7F
:10819C0031662C2022536F696C6D6F697374757224
:1081AC006535223A25342E31662C2022536F696CAA
:1081BC006D6F69737475726536223A25342E31668B
:1081CC002C202250726563697069746174696F6EDA
:1081DC00223A2025692C2022536F696C74656D70CE
:1081EC00223A25342E31662C202248756D6964693B
:1081FC007479223A25342E31662C202254656D7008
:10820C0065726174757265223A25342E31662C20A4
:10821C002250616E656C68756D6964697479223A77
:10822C0025342E31662C202250616E656C74656D80
:10823C007065726174757265223A25342E31662C24
:10824C00202242617474657279223A25342E31668B
:10825C002C2022526164696F74656368223A202570
:10826C00692C20225369676E616C223A2025342ECA
:10827C0031662C20225175616C697479223A202563
:10828C00342E31662C2022526573657473223A2584
:10829C00692C2022416C65727473223A25697D0029
:1082AC0043656C6C756C61725F4C69506F5F486FA5
:1082BC006F6B004E6F204461746100556269646F8E
:1082CC00747320486F6F6B00526573706F6E7365BB
:1082DC00205265636569766564005374617465004A
:1082EC0053657420566572626F7365204D6F6465BB
:1082FC00003000436C656172656420566572626F74
:10830C007365204D6F64650054696D65207A6F6EDE
:10831C0065206F66667365742025690054696D6508
:10832C00004C6F7720506F776572004E6F726D61E5
:10833C006C204F7065726174696F6E730046726F5A
:10834C006D20257320746F20257300537461746540
:10835C00205472616E736974696F6E004572726F2E
:10836C00722074616B696E67204D656173757265FF
:10837C006D656E7473004D6561737572656D656EB8
:10838C00742074616B656E20616E642073746F72FF
:10839C006564004379636C6520436F6D706C657424
:1083AC0065202D2044617461205265636569766592
:1083BC0064005265706F7274696E670073706172DD
:1083CC006B2F6465766963652F73657373696F6E64
:1083DC002F656E6400476F696E6720746F20536C55
:1083EC00656570004C6F77204261747465727920FA
:1083FC002D20536C656570696E67004572726F72E3
:10840C00205374617465202D20526573657400458A
:10841C0072726F72205374617465202D204C6F73CF
:10842C00742053657373696F6E004572726F72209E
:10843C005374617465202D2046756C6C204D6F64EF
:10844C00656D205265736574005369676E616C00CD
:10845C005265736574436F756E740052656C65611B
:10846C0073650073746174654F66436867006C6F65
:10847C0077506F7765724D6F64650074656D7065CC
:10848C007261747572650068756D696469747900E0
:10849C00536F696C54656D7000536F696C4D6F69E7
:1084AC0073747572653100536F696C4D6F697374B9
:1084BC007572653200536F696C4D6F6973747572A8
:1084CC00653300536F696C4D6F69737475726534E5
:1084DC0000536F696C4D6F69737475726535005319
:1084EC006F696C4D6F69737475726536004D65619B
:1084FC00737572652D4E6F77004C6F77506F776583
:10850C00724D6F646500566572626F73652D4D6FA9
:10851C0064650053657454696D655A6F6E650046E9
:10852C0061696C656420746F20636F6E6E65637433
:10853C00005374617274757000556E6B6E6F776E4C
:10854C00004E6F6E6500576946690047534D0055E4
:10855C004D54530043444D41004C5445004945454E
:10856C004538303231353400312E303800000000BF
:10857C0000000000000000001F580D0015580D00F1
:10858C000B580D00C1570D00FF570D00F3570D0090
:10859C00E7570D00DF570D00D5570D00CB570D00D9
:1085AC00C1630D000000000000000000CD580D005C
:1085BC005F590D00CF580D00A1590D00D5580D0075
:1085CC006D590D0001590D002D590D00FCFFFFFFD9
:1085DC000000000057590D000000000000000000D2
:1085EC00ED590D00F3590D00495A0D00015A0D00BB
:1085FC00EF590D0000000000000000005F600D004E
:10860C0055600D004B600D0041600D0035600D0094
:10861C0029600D001D600D0015600D000B600D0034
:10862C0001600D00C1630D0000000000000000009F
:10863C007D600D00C7600D009F600D007F600D0018
:10864C00A7600D00AF600D00B7600D00BF600D009E
:10865C00000000000000000011610D0001610D0020
:10866C0003610D0066006C6E00666E00636F6465DE
:10867C000064657461696C00253031307520005DD3
:10868C0020002564002C200028293A2000205B00C3
:10869C00636F6465203D200064657461696C7320B0
:1086AC003D2000626175640053657269616C005312
:1086BC00657269616C31007479706500706172610A
:1086CC006D00636D6400696400686E64007374729D
:1086DC006D0066696C74006C766C00616464486152
:1086EC006E646C65720072656D6F766548616E6460
:1086FC006C657200656E756D48616E646C65727345
:10870C00004A534F4E53747265616D4C6F674861EC
:10871C006E646C657200617070006E6F6E650074D3
:10872C007261636500696E666F007761726E0065D9
:10873C0072726F720070616E696300616C6C000024
:10874C00000000000000000053620D0049620D00A3
:10875C003F620D0035620D0029620D001D620D0097
:10876C0011620D0009620D00FF610D00F5610D0035
:10877C00C1630D00000000000000000059630D00F3
:10878C0063630D006D630D0077630D0081630D0055
:10879C008D630D0099630D00A5630D00AD630D0095
:1087AC00B7630D00C1630D00000000000000000065
:1087BC0005660D0007660D00252B3033643A253015
:1087CC0032750025592D256D2D25645425483A25E3
:1087DC004D3A2553257A0061736374696D65000009
:1087EC000000000000000000ED690D003D6A0D0066
:1087FC004B6A0D00A1640D00016A0D00236A0D0087
:10880C000F6A0D00376A0D00EF690D00F3690D005A
:10881C000000000000000000F56A0D00456B0D0023
:10882C00536B0D00A1640D00316B0D00F76A0D0048
:10883C000D6B0D003F6B0D00236B0D00F16A0D00ED
:10884C0053756E4D6F6E54756557656454687546F7
:10885C0072695361744A616E4665624D6172417012
:10886C00724D61794A756E4A756C417567536570C6
:10887C004F63744E6F76446563252E337320252E1B
:10888C00337325336420252E32643A252E32643A14
:10889C00252E32642025640A000020202020202070
:1088AC002020202828282828202020202020202094
:1088BC002020202020202020202088101010101094
:1088CC0010101010101010101010040404040404E4
:1088DC0004040404101010101010104141414141C7
:1088EC00410101010101010101010101010101012C
:1088FC0001010101011010101010104242424242BD
:10890C0042020202020202020202020202020202FB
:10891C0002020202021010101020000000000000E1
:10892C00000000000000000000000000000000003B
:10893C00000000000000000000000000000000002B
:10894C00000000000000000000000000000000001B
:10895C00000000000000000000000000000000000B
:10896C0000000000000000000000000000000000FB
:10897C0000000000000000000000000000000000EB
:10898C0000000000000000000000000000000000DB
:10899C0000000000000000000000000000000000CB
:1089AC0000000000000000000000000000000000BB
:1089BC0000000000000000000000000000000000AB
:1089CC00000000000000000000000000000000009B
:1089DC00000000000000000000000000000000008B
:1089EC00000000000000000000000000000000007B
:1089FC000000000000000000000000001F0000004C
:108A0C001C0000001F0000001E0000001F000000E2
:108A1C001E0000001F0000001F0000001E000000D0
:108A2C001F0000001E0000001F0000001F000000BF
:108A3C001D0000001F0000001E0000001F000000B1
:108A4C001E0000001F0000001F0000001E000000A0
:108A5C001F0000001E0000001F000000545A0047B9
:108A6C004D54002531305B5E302D392C2B2D5D257E
:108A7C006E004D256875256E2E256875256E2E2584
:108A8C006875256E002F256875256E3A2568752545
:108A9C006E3A256875256E0075510D00B1570D00A5
:108AAC009D580D0069600D00E5610D0009630D0016
:108ABC008D640D00E9650D003D680D00D9690D0050
:108ACC00D16D0D00296E0D00ED6E0D00716F0D0056
:048ADC00F56F0D0025
:108AE000496E697469616C697A65000000004572BD
:108AF000726F7200000000000000000049646C65A5
:108B0000000000000000000000004D6561737572F8
:108B1000696E6700000000005265706F7274696EC4
:108B2000670000000000526573706F6E7365205718
:108B300061697400536C656570696E6700000000C0
:108B400000004C6F772042617474657279000000F8
:108B500074850D00A8610000010000000000404085
:108B600045850D004D850D0052850D0057850D0082
:108B70005B850D0060850D0065850D0069850D0024
:108B8000E3870D00A5880D0000000000A8890D00F6
:108B9000C8890D00E8890D000000000000000000F9
:108BA000000000000000000034810D000000000003
:108BB00000000000000000000000000000000000B5
:108BC00000000000000000000000000000000000A5
:108BD0000000000000000000000000000000000095
:108BE0000000000000000000FCE003206B8A0D0084
:108BF0006B8A0D0001000000000000004A00000028
:108C00000000000000000000000000000000000064
:108C100000000000000000004A000000000000000A
:108C20000000000000000000000000000000000044
:088C300000000000ECE7032046
:108C3800FFFFFFFF00000102030405060708090AF9
:108C48000B0C0D0E0F101112131415161718191AF4
:088C58001B1C1D1E1F2028003B
:048C600078563412FC
:04000003D000401CCD
:00000001FF
