:02000002D0002C
:1040000000400D00D87D0D00000006000D000501E8
:08401000040129050000000075
:0440180064760D00BD
:10401C0009480A49884208B505D0094A824202D0AB
:10402C00121A02F0BFFE0748074A0021121A02F0CA
:10403C00C4FE014808BD00BF24E20320F07C0D0043
:10404C00E4E20320E8E20320F4E7032070B501F07A
:10405C00C9FF074C074BE41AA40800251E46A542CD
:10406C0004D056F8253098470135F8E770BD00BFED
:10407C00E47C0D00A47C0D0000F036B908B500F00E
:10408C00F1F9BDE8084001F07BBF00F041BE00F043
:10409C0047BE00F045BE0078B0FA80F0400970478A
:1040AC00012303707047000008B5044901F03FFD7F
:1040BC0018B1034B03221A70012008BD14790D00AE
:1040CC000CE3032037B59DF8184023438DF80030DE
:1040DC003C23054601F04EF8284603B030BD0000E5
:1040EC0013B5642001F070FC07EE900AF8EEE77A45
:1040FC00104C17EE900AC4ED007A02F0E7FA0E4A63
:10410C00CDE9000110210D4800F022FE206802F0DC
:10411C00DDFA41EC100B0A4800F053FB094A136816
:10412C000133136001F0EAFD074B1870012002B057
:10413C0010BD00BF20E30320B8760D00F1E2032090
:10414C0028E3032040E3032014E303202DE9D043AC
:10415C002A4800231A461946406800F0A9FD00F0D1
:10416C004FFD4FF4967440F2E7360027002000F024
:10417C00D9FB4FF000098046002000F0D3FBB0EBD8
:10418C00080061EB09018F4208BF864205D300F09D
:10419C0047FD10B900F02CFDEEE700F041FDD0B169
:1041AC0000F03EFD044628B3002000F0BBFB0027C6
:1041BC0006464EF65F284FF00009002000F0B2FBD7
:1041CC00801B61EB0701894508BF80450CD301F0CA
:1041DC0062FD48B90BE000F075FB094B186000F06C
:1041EC0007FD013CDCD0C1E701F055FD02E000F019
:1041FC00FFFCE2E72046BDE8D08300BF48E3032084
:10420C00E8E6032008B500F003FD064800231A4633
:10421C001946406800F054FD4FF47A7000F0B0FD80
:10422C00012008BD48E3032010B5074C00F04AFB01
:10423C002368C01AB0F57A7F04D300F043FB2060EA
:10424C00012010BD002010BDECE2032008B5FFF7E3
:10425C00EBFF18B1BDE80840FFF7E6BF00F0C8FC63
:10426C00F5E7000037B500F0D3FC00F02BFB43F66C
:10427C009725044600F0D4FC40B100F023FB001B52
:10428C00A84203D8642000F07BFDF3E70021094B22
:10429C0047F23052084600F0DDFA4FF47A7000F025
:1042AC006FFD054B0A221B680121684601F052FC88
:1042BC0003B030BDC1760D0018E3032038B5046897
:1042CC0005467CB16368013B63605BB9236820469B
:1042DC009B689847A368013BA3601BB923682046E1
:1042EC00DB689847284638BD70B5334B94B004AAA8
:1042FC0003F11006154618685968144603C40833B0
:10430C00B3422246F7D119889B7821802D22A370C5
:10431C0000210DF12300294C02F04FFD0223012155
:10432C000720237001F09CFE0121072001F0A9FE5B
:10433C00234800F023FA002301222249224800F0EE
:10434C0047FC2249224809680023042200F040FC63
:10435C00204A2149214800F0ECFD214A21491F48FF
:10436C0000F0E7FDFFF7F2FE08B90123237001F01E
:10437C00C5FC1D4B187001F09DFE002000F0BAFA30
:10438C001A4B18700F4B00F00100187000F048FC2D
:10439C0060B1174B17491B7800228DF8002002A83A
:1043AC002A46FFF78FFE03A8FFF788FF00F08AFA72
:1043BC00114B186014B070BD78760D000CE303201F
:1043CC0028E30320F0E20320CE760D0024E2032044
:1043DC00DB760D00E3760D00B5400D00134F0D009C
:1043EC00EF760D0061460D0014E303201DE303205E
:1043FC001CE30320FC760D0010E3032010B5144CD5
:10440C0096B0FFF723FF204600F00FFA6378029373
:10441C008DED000B0F4A402106A800F099FC00F02E
:10442C00FFFB60B10C4B0D491B7800228DF800206E
:10443C0004A806AAFFF746FE05A8FFF73FFF084BA6
:10444C00034800221A6000F099F916B010BD00BFA5
:10445C0028E3032004770D001CE3032038770D00BC
:10446C0040E30320F0B56C4C2378013B9BB0052B4B
:10447C0000F2D080DFE813F0AB0006001C00540003
:10448C00CE006C00654B1B784BB100F01BFA644BF3
:10449C001B68C01A634B1B68984280F0B88001F00F
:1044AC002DFC614B1B78984200F0B48003234BE049
:1044BC00FFF716FE01F022FC08B9042300E00223EA
:1044CC00237000F0ADFB002800F0A480FFF7BEFEC7
:1044DC00564B574C186802F0F9F8064620460F4622
:1044EC0000F0A3F9637804938DED020B514A40213F
:1044FC00CDE900670AA800F02BFC00F091FB002826
:10450C0000F088804C4B4D491B7800228DF8002020
:10451C0008A80AAAFFF7D6FD09A8FFF7CFFE79E095
:10452C00FFF714FE90B101F0DFFB0C2805D100F071
:10453C0077FB10B1002000F083FBFFF75FFF394BD6
:10454C0046F2A8121A600223237063E00123FBE7F2
:10455C0000F066FBA0B1FFF779FE374B38491B78AA
:10456C0000228DF800200AA8364AFFF7ABFD0BA8F5
:10457C00FFF7A4FE4FF47A7000F002FCFFF742FE46
:10458C000021072001F07DFD264B64221A6001F00A
:10459C00BFFB2D4B1A680623ADF820301AAB012552
:1045AC00C0F13C0003F8495D08A9029201902A462B
:1045BC000AA8009501F0FEFA022329460720237071
:1045CC0001F05FFD00F07EF9154B186022E000F061
:1045DC0079F91E4B1B6803F5EA433033984219D91D
:1045EC0000F01EFB60B1144B15491B7800228DF8AE
:1045FC0000200AA8164AFFF765FD0BA8FFF75EFE20
:10460C004FF4FA6000F0BCFBFFF72CFE02E006232F
:10461C00237044E71BB0F0BD0CE30320F0E2032051
:10462C0010E3032028E2032014E3032020E30320FB
:10463C0028E3032046770D001CE3032076770D005A
:10464C0093770D0084770D0018E3032008E3032013
:10465C0099770D007FB52649054601F068FA28B90F
:10466C002449284601F063FA00283FD001F022FDCE
:10467C00002000F03FF9204C1D492070284601F025
:10468C0056FA0646A0B11D4B1D491B7800228DF829
:10469C00002002A81B4AFFF715FD03A8FFF70EFE2A
:1046AC00237843F001032370174B01221A7016E094
:1046BC001049284601F03BFA88B1104B134A1B787D
:1046CC000F498DF8006002A8FFF7FCFC03A8FFF768
:1046DC00F5FD237803F07E0323700B4B1E7001F065
:1046EC00E9FC0020217800F00DF9012004B070BD28
:1046FC0014790D00FB770D001DE303201CE3032050
:10470C00F7760D00AD770D00F0E20320B7770D00C2
:10471C0038B5104B00241C600F4B01251D7000F0A8
:10472C0009F90E4B4FF6FF721C705C809A800220C8
:10473C0000F0F8F921460A4C284600F00BFA3C210F
:10474C00204600F030F82046064A0749BDE83840BC
:10475C0001F006BD18E303201CE3032002E3032051
:10476C0028E30320E8E2032079470D0010B5044646
:10477C00006908B100F0D4FA204610BD30B5002411
:10478C000025C0E902450023437083700278591C50
:10479C00DBB29A4206D9026902EBC303C3E90045B6
:1047AC000B46F3E730BD10B504460170C80000F0AD
:1047BC00AFFA206100B920702046FFF7DFFF2046DA
:1047CC0010BD38B52DED028BB0EE408AF0EE608A4C
:1047DC000369044633B3857803EBC505D5E900239B
:1047EC00D0E9020101F012FEC4E9020185ED008B53
:1047FC00A578236903EBC503D3E90023D4E90201AF
:10480C0001F006FE01352278EDB2954208BF002377
:10481C00A57008BFA3706378C4E902019A4284BFF3
:10482C0001336370BDEC028B38BD10B50446407883
:10483C0040B101F039FF02460B46D4E9020102F007
:10484C00C3F801E00020002141EC100B10BD00F07A
:10485C0071B8000008B5024B1B689B6C019308BD36
:10486C007402030008B5024B1B689B68019308BDDA
:10487C004802030008B5024B1B681B69019308BD75
:10488C004802030008B5024B1B685B69019308BD25
:10489C004802030008B5024B1B681B6B019308BD53
:1048AC004802030008B5024B1B685B6C019308BD02
:1048BC004802030008B5024B1B685B68019308BDF6
:1048CC001802030008B5024B1B685B69019308BD15
:1048DC001802030008B5024B1B68DB69019308BD85
:1048EC001802030008B5024B1B689B6A019308BDB4
:1048FC001802030008B5024B1B68DB6A019308BD64
:10490C001802030008B5024B1B681B6B019308BD12
:10491C001802030008B5024B1B689B6D019308BD80
:10492C001802030008B5024B1B68DB6D019308BD30
:10493C001802030008B5024B1B681B68019308BDE5
:10494C002C02030008B5024B1B689B68019308BD41
:10495C002C02030008B5024B1B68DB68019308BDF1
:10496C002C02030008B5024B1B681B69019308BDA0
:10497C002C02030008B5024B1B681B6A019308BD8F
:10498C002802030008B5024B1B685B6A019308BD43
:10499C002802030008B5024B1B689B6A019308BDF3
:1049AC002802030008B5024B1B68DB6A019308BDA3
:1049BC002802030008B5024B1B681B6B019308BD52
:1049CC002802030008B5024B1B685B6B019308BD02
:1049DC002802030008B5024B1B681B6C019308BD31
:1049EC002802030008B5024B1B685B69019308BDE4
:1049FC006402030008B5024B1B689B68019308BD59
:104A0C006802030008B5024B1B68DB68019308BD04
:104A1C006802030008B5024B1B68DB69019308BDF3
:104A2C003002030008B5024B1B681B6A019308BDDA
:104A3C003002030008B5024B1B681B68019308BDCC
:104A4C003C02030008B5024B1B68DB68019308BDF0
:104A5C003C02030008B5024B1B681B69019308BD9F
:104A6C003C02030008B5024B1B685B69019308BD4F
:104A7C003C02030008B5024B1B689B69019308BDFF
:104A8C003C02030008B5024B1B68DB69019308BDAF
:104A9C003C02030008B5024B1B681B6A019308BD5E
:104AAC003C02030008B5024B1B689B6A019308BDCE
:104ABC003C02030008B5024B1B681B68019308BD40
:104ACC004C02030008B5024B1B681B69019308BD1F
:104ADC004C02030008B5024B1B685B69019308BDCF
:104AEC004C02030008B5024B1B689B69019308BD7F
:104AFC004C02030008B5024B1B68DB69019308BD2F
:104B0C004C02030008B5024B1B681B6A019308BDDD
:104B1C004C02030008B5024B1B681B68019308BDCF
:104B2C002002030008B5024B1B685B68019308BDAB
:104B3C002002030008B5024B1B685B69019308BD9A
:104B4C002002030008B5024B1B689B69019308BD4A
:104B5C002002030008B5024B1B68DB6A019308BDF9
:104B6C002002030008B5024B1B68DB6C019308BDE7
:104B7C002002030008B5024B1B685B6D019308BD56
:104B8C002002030008B5024B1B689B6D019308BD06
:104B9C002002030008B5034B1B68D3F8883001933F
:104BAC0008BD00002002030008B5034B1B68D3F8B6
:104BBC009430019308BD00002002030008B5034B9C
:104BCC001B68D3F8A030019308BD0000200203003D
:104BDC0008B5024B1B681B68019308BD4402030017
:104BEC0008B5024B1B685B68019308BD44020300C7
:104BFC0008B5024B1B689B68019308BD4402030077
:104C0C0008B5024B1B68DB68019308BD4402030026
:104C1C0008B5024B1B681B69019308BD44020300D5
:104C2C0008B5024B1B685B69019308BD4402030085
:104C3C0008B5024B1B681B6A019308BD44020300B4
:104C4C0008B5024B1B68DB6A019308BD44020300E4
:104C5C0008B5024B1B681B6B019308BD4402030093
:104C6C0008B5024B1B68DB6B019308BD44020300C3
:104C7C0008B5024B1B685B68019308BD400203003A
:104C8C0008B5024B1B689B68019308BD40020300EA
:104C9C0008B5024B1B68DB68019308BD400203009A
:104CAC0008B5024B1B681B69019308BD4002030049
:104CBC0008B5024B1B685B69019308BD40020300F9
:104CCC0008B5024B1B689B69019308BD40020300A9
:104CDC0008B5024B1B68DB69019308BD4002030059
:104CEC0008B5024B1B681B6A019308BD4002030008
:104CFC0008B5024B1B681B6B019308BD40020300F7
:104D0C0008B5024B1B685B6B019308BD40020300A6
:104D1C0008B5024B1B681B68019308BD1C020300FD
:104D2C0008B5024B1B685B68019308BD1C020300AD
:104D3C0008B5024B1B689B68019308BD1C0203005D
:104D4C0008B5024B1B689B69019308BD1C0203004C
:104D5C0008B5024B1B68DB69019308BD1C020300FC
:104D6C0008B5024B1B68DB6A019308BD1C020300EB
:104D7C0008B5024B1B681B6B019308BD1C0203009A
:104D8C000021FFF7D7BE10B5836804460BB901F0BC
:104D9C00EEF9C3689847A3681BB10322214620464D
:104DAC00984720461021BDE8104001F0DEB90B6891
:104DBC00036013B15A6801325A60704702480023ED
:104DCC000360FFF76FBD00BF44E3032000221146D0
:104DDC004068FFF765BF002211464068FFF780BFAF
:104DEC00002211464068FFF78BBF00224068FFF796
:104DFC007FBF002281F001014068FFF769BF0023EB
:104E0C001A4619464068FFF75BBF00231A4619463D
:104E1C004068FFF74DBF002211464068FFF730BFD6
:104E2C00002202214068FFF733BF00231A46406876
:104E3C00FFF71EBF38B5084C28252A46002120460E
:104E4C0001F0BBFF4FF0FF336360044B258004225D
:104E5C005A60034A1A6038BD50E3032048E303202C
:104E6C0008780D0070470020704710B510210446DB
:104E7C0001F07BF9204610BD08B508B1FFF7F5FF2E
:104E8C0008BD10B58368044613B103220146984748
:104E9C00204610BD0022026010B54FF69C72828035
:104EAC00B1F9044084808A8002680C6804600A604E
:104EBC0010BD10B504460068FFF732FF204610BD48
:104ECC0038B5C468F4B12378022B03D104F10C007B
:104EDC00FFF7EFFF656835B12846FFF7D2FF1021C9
:104EEC00284601F042F9A56835B12846FFF7C9FFFD
:104EFC001021284601F039F920461421BDE838402C
:104F0C0001F033B938BD10B588B00446684600F0DE
:104F1C00E1FD694604A800F0FFFD04A8A047044683
:104F2C0004A800F090FD684600F08DFD204608B006
:104F3C0010BDF0B5102485B007460E46154600216D
:104F4C002246684601F039FF002269461046ADF84A
:104F5C000040029703960195FFF742FE05B0F0BDA5
:104F6C0013B5044691E8050000234B600B602060EC
:104F7C00626001A801930093FFF7A0F9204602B0EC
:104F8C0010BDF7B50C4602AD54F8043B45F8083D8E
:104F9C0006460F4601A82146FFF709FF2946304671
:104FAC00FFF7DEFF01A8FFF789F92046FFF786F926
:104FBC003846082101F0D9F8304603B0F0BD13B5DE
:104FCC000B46044603C88DE8030093E8030084E80D
:104FDC0003009DE8030083E8030002B010BD00004D
:104FEC0038B500230446036010200D46FFF74DF83A
:104FFC0028B1012343608360024B0360C5602060CD
:10500C00204638BD3C780D00826810B50AB901F015
:10501C00AEF8C368BDE81040184708B5006800F149
:10502C001001FFF7F1FF08BD826810B50AB901F055
:10503C009EF8C368BDE81040184708B5006800F139
:10504C001001FFF7F1FF08BD38B5002383608B68B2
:10505C0004460D462BB102229847EB68E360AB681F
:10506C00A360204638BD0000F0B589B004686846DE
:10507C00FFF710FF00238DF808304FF00202D4E840
:10508C004F3F002B03D1C4E8412F0029F7D102D0A8
:10509C008DF8083063E014F10C0503D069462846FE
:1050AC00FFF7F8FEBFF35F8F01236370002004F15C
:1050BC000803BFF35F8F53E8006F43E80002002A38
:1050CC00F9D1BFF35F8F002E49D0FFF74BFD20B114
:1050DC0029463046FFF798FF3AE0314602A8FFF721
:1050EC00B3FFE068B4F9105008B101F0E3FE06908C
:1050FC001020ADF81C50FEF7C8FF0546E8B100279C
:10510C0087601820FEF7C1FF044688B1014687600E
:10511C0002A8FFF754FF049BA268A360059B0492AE
:10512C0006A9E268E36004F110000592FFF7B2FEF5
:10513C000D4BEB600D4B2C60AB6006A8FFF7B9FE76
:10514C0002A8FFF79EFE002229460948FFF712FD30
:10515C003046FFF796FE1021304601F006F86846FF
:10516C00FFF7A7FE09B0F0BD27500D009D520D00B2
:10517C00934D0D002DE9F04F8BB006460F4690462F
:10518C0099469DF850A0FFF74BFD07AD834630BB09
:10519C004FF62E73059005A92846ADF81830FFF789
:1051AC0079FE1420FEF771FF044658B102230370F8
:1051BC0001234370C0F804B0C0F808B029460C3085
:1051CC00FFF768FE3046214640F8044BFFF708FF16
:1051DC002846FFF76EFE05A8FFF76BFE52E0002491
:1051EC000C2314206C60AC600793FEF74EFF014655
:1051FC0018B1047044704460846004A80391FFF7F4
:10520C00EFFE224B08930820FEF73FFF044628B11F
:10521C00039B40F8043B04A9FFF7C9FD00955FFA16
:10522C008AF34A46414638460994FFF701FD20B9F6
:10523C00039B5B7803F0FF0283B1039B059304A9E6
:10524C0006A8FFF7B4FD05A93046FFF789FE06A8AE
:10525C00FFF734F804A8FFF731F813E04FF69C730E
:10526C0005A903A80592ADF81830FFF7FDFE05A8B7
:10527C00FFF71FFE05A80999FFF783FE06A8FFF7A5
:10528C001DF8DAE730460BB0BDE8F08F0D540D0079
:10529C00022AF8B5044606D0032A17D0012A22D1D7
:1052AC000B6803601FE018200E68FEF7EEFE054643
:1052BC0050B13146FFF7C8FE3069B6F9147008B129
:1052CC0001F0F8FD2861AF8225600CE0046854B150
:1052DC0004F11000FFF7EDFD2046FFF7D2FD182179
:1052EC00204600F042FF0020F8BD38B50023836053
:1052FC008B6804460D462BB102229847EB68E3609D
:10530C00AB68A360204638BD022A70B5044606D0AF
:10531C00032A11D0012A18D10B68036015E0142060
:10532C000E68FEF7B2FE054620B13146FFF7DDFFF1
:10533C00337C2B74256008E0046834B12046FFF7F9
:10534C00A0FD1421204600F010FF002070BD0000CD
:10535C00F0B5002387B00C46BFF35F8F50E8006FA9
:10536C0040E80032002AF9D1BFF35F8F002E3FD006
:10537C001846FFF7F7FB074620B121463046FFF7EA
:10538C0053FE2EE0314601A8FFF7AFFF23788DF8CE
:10539C0014301020FEF779FE0546D0B1876014203A
:1053AC00FEF773FE044678B18760014601A8FFF74B
:1053BC0006FE039BA268A360049B0392E268E36071
:1053CC009DF81430049223740A4BEB600A4B2C604A
:1053DC00AB6001A8FFF755FD002229460748FFF7EF
:1053EC00C9FB3046FFF74DFD1021304600F0BDFEE5
:1053FC0007B0F0BD47500D0015530D00934D0D0037
:10540C0030B585B004460D4668461146FFF7B9FD28
:10541C007CB124B228460DB101F04CFD029002A9DA
:10542C006846ADF80C40FFF71FFE02A8FFF741FDE0
:10543C001DE000988DF808404FF00102D0E84F3F76
:10544C00A34203D1C0E8412F0029F7D102D08DF837
:10545C0008300CE010F10C014FF0010318BF03737E
:10546C00BFF35F8F043000F8033CFFF771FF01A816
:10547C00FEF724FF05B030BD002211464068FFF74F
:10548C002FBC002211464068FFF73ABC002240684E
:10549C00FFF72EBC002281F001014068FFF718BC19
:1054AC0000231A4619464068FFF70ABC00231A4627
:1054BC0019464068FFF7FCBB002211464068FFF715
:1054CC00EFBB002211464068FFF7DABB0022022135
:1054DC004068FFF7DDBB00231A464068FFF7C8BBE6
:1054EC00024B03225A60024A1A60704778E3032089
:1054FC0058780D007047F8B5064615460C468F18BF
:10550C00BC4206D0336814F8011B9B6830469847A0
:10551C00F6E72846F8BD0022007CFFF72BBA0021E5
:10552C00007CFFF72FBA0021007CFFF733BA002173
:10553C00007CFFF737BA0021007CFFF73BBA10B5AF
:10554C001421044600F011FE204610BD10B504468F
:10555C004FF47A730846A3600021044B20746160F9
:10556C002360FFF737FA204610BD00BF8C780D0082
:10557C000021007CFFF726BA704710B518210446AD
:10558C0000F0F3FD204610BDF0B5037D062B8DB069
:10559C000E4600F104074FF0000402D000F108059C
:1055AC0018E00CAD394605F8304D2F232A460A2059
:1055BC00FFF718FA284601F098FC33680246DB68BE
:1055CC002946304698470FE024B12E21304600F092
:1055DC00C9F9044415F8011D0A22304600F0F2F90D
:1055EC00BD420444F0D120460DB0F0BD10B5054BC2
:1055FC000446112240F8043B002101F0DEFB20465A
:10560C0010BD00BFB4780D000346074A10B543F82F
:10561C00042B01F1100251F8044B43F8044B914256
:10562C00F9D10A781A7010BDB4780D0010B59DF838
:10563C00084044EA032343EA024242EA016104239C
:10564C004160037510BD37B50D788B784A78C978F1
:10565C0000912946FFF7EAFF03B030BD014B024A27
:10566C001A60704780E3032075790D000022114603
:10567C004068FFF735BB002211464068FFF740BB7E
:10568C0000224068FFF734BB002281F00101406822
:10569C00FFF71EBB00231A4601214068FFF710BB21
:1056AC0000231A4619464068FFF702BB0022114638
:1056BC004068FFF7F5BA002211464068FFF7E0BAE0
:1056CC00002202214068FFF7E3BA00231A46406823
:1056DC00FFF7CEBA38B5054688B104684CB1A3685B
:1056EC001BB103222146204698471021204600F08A
:1056FC003CFD28461421BDE8384000F036BD38BDCD
:10570C0010B103685B681847704710B5036804460E
:10571C00BBB15868FFF7A6F878B923685A7C12B960
:10572C005868FFF7A7F823685868FFF7ABF82068AC
:10573C000023236028B1FFF7CDFF206808B1FFF7E5
:10574C00C9FF204610BD000038B50C4B0360044661
:10575C00D0F8CC0108B1FEF79CFCD4F8C45135B19B
:10576C002846FFF7D2FF0421284600F0FEFCA06873
:10577C0008B1FFF7C5FF204638BD00BFA8790D0062
:10578C0038B50E4C0E4B23600025022304F5E47053
:10579C006360A560C4F8C451C4F8C851FFF782F81F
:1057AC00084BC4F8CC5184F8D05123602046064AEB
:1057BC000649BDE8384000F0D3BC00BF84E30320A9
:1057CC00DC790D00A8790D00E8E2032055570D0097
:1057DC0000231A464068FFF74BBA002202214068AA
:1057EC00FFF756BA002211464068FFF749BA00226B
:1057FC0011464068FFF754BA00231A461946406810
:10580C00FFF756BA00231A4619464068FFF758BAF4
:10581C00002281F001014068FFF75ABA002240686B
:10582C00FFF766BA002211464068FFF769BA0022FA
:10583C0011464068FFF754BA2DE9F043002495B0A7
:10584C0016460D460746FFF7D1FE214620220CA82E
:10585C00009401F0B2FA40230C9321466B460CAA3B
:10586C003046FFF7CFF80446002844D10246012108
:10587C006868FFF715FA0221804622466868FFF730
:10588C000FFA009E81462146002E34D0002932D1D9
:10589C007368022B02D00A2B09D02AE0B8F1000F52
:1058AC0027D0716938460431FFF7CDFE20E0B9F1FD
:1058BC00000F1ED07469112201A801F07EFA062394
:1058CC008DF8143001AD04F10803183418685968C8
:1058DC002A4603C20833A3421546F7D101A906A8EC
:1058EC0007ADFFF791FE0FCD3C1D0FC42B68237045
:1058FC000121F669C8E70098FFF77CF8384615B027
:10590C00BDE8F083024B034A1A6000225A607047CC
:10591C0058E50320DC790D00F8B506460D468F18C6
:10592C000024BD420CD0336815F8011B9B6830462F
:10593C009847002801DB0444F3E7002C08BF044619
:10594C002046F8BD70B505460C46084649B101F035
:10595C00CCFA2B68024621462846DB68BDE870402D
:10596C00184770BD03689B68184730B58BB00B4661
:10597C0000218DF82410012A98BF0A220DF123046E
:10598C00B3FBF2F505FB123303F0FF03092B94BFB5
:10599C0030333733DBB2214604F801392B46002D66
:1059AC00EED1FFF7CFFF0BB030BD10B42AB90368AE
:1059BC005DF8044B9B68C9B21847D2B25DF8044B32
:1059CC00FFF7D3BFFFF7F1BF10B5044630B101F0BC
:1059DC0025FA90FBF4F303FB140010BD10BD10B5B9
:1059EC000446FFF74EFA204610BD00000348044A57
:1059FC0004490023836000F0B3BB00BF60E50320C3
:105A0C00E8E20320EB590D00704710B51021044655
:105A1C0000F0ABFB204610BD70B5084B036004468C
:105A2C0000250E4640F80C5FFEF734FF3046267119
:105A3C00FEF7F0FFA560204670BD00BF107A0D0088
:105A4C000079FEF7EFBF10B504460068FFF768F960
:105A5C00204610BD10B50446006808B1FFF760F988
:105A6C0000232360A360636010BD38B504460D4667
:105A7C0000680131FFF75CF910B184E821000120C6
:105A8C0038BD10B50368044613B143688B4207D286
:105A9C002046FFF7EAFF20B1A3680BB92268137008
:105AAC00012010BD70B50E46114604461546FFF791
:105ABC00E8FF18B92046FFF7CDFF09E02A4631462A
:105ACC00A560206801F06EF92268A3680021D1540A
:105ADC00204670BD38B500230446036043608360E4
:105AEC0003730D4639B1084601F0FFF92946024609
:105AFC002046FFF7D7FF204638BD884210B50B462D
:105B0C00044607D0096819B19A68FFF7CBFF01E08A
:105B1C00FFF7A0FF204610BD10B50023044603601C
:105B2C00436083600373FFF7E8FF204610BD08B5A0
:105B3C0082680B4612B919B9012008BD11B9036866
:105B4C00187802E0006801F0A3F9B0FA80F040097F
:105B5C0008BD000010B50446084611461A4600233D
:105B6C00FEF7F0FF064B00221A704FF6FF725880BA
:105B7C009A801A689B882260A380204610BD00BFC3
:105B8C0070E5032010B500240470448000294FF602
:105B9C00FF74848007DD0139994209D232F8113043
:105BAC008380012301E002D10223037010BD4180E8
:105BBC0010BD000070B586B016461A46002302933D
:105BCC000C9B01930D460B9B009304460A9B31469C
:105BDC002846FEF7F3FF33462A46014604A8FFF792
:105BEC00D1FF064B0498BDF8142018609A801A68EF
:105BFC009B8822602046A38006B070BD70E5032010
:105C0C00044B00204FF6FF72187058809A80FEF7F4
:105C1C0089BF00BF70E50320F0B5144B144F1E680C
:105C2C00144B064418683B6806449E428BB01BD04C
:105C3C000AA801AD40F8286D00F0BCFF436903F2DF
:105C4C006C73436104460FCC0FC50FCC0FC5D4F851
:105C5C0000E0C5F800E001AD0FCD074C0FC40FCD2F
:105C6C000FC43E60C4F800E00BB0F0BDA8E5032003
:105C7C00A4E50320A0E5032078E5032008B5002067
:105C8C00FEF7E6FF28B1FEF7CBFF80F00100C0B2B3
:105C9C0008BD012008BD10B50020FEF73BFE0446F0
:105CAC0068B9FEF737FF01280BD12046FEF76AFFD3
:105CBC0038B9FFF7E3FF30B9FEF79AFFF9E7012097
:105CCC0010BD002010BDFFF7D9FF0020FEF722FE0B
:105CDC00003018BF012010BD08B5FFF7DCFFBDE890
:105CEC000840FEF7F7BD000008B5FFF7F5FFFFF71A
:105CFC0093FF014B986808BD78E5032008B5FFF7C2
:105D0C00EBFFFFF789FF014B586808BD78E50320CE
:105D1C0008B5FFF7E1FFFFF77FFF014B186808BDDF
:105D2C0078E50320024B1A68024B1A60704700BFDB
:105D3C002CE203209CE5032070474174704708B5A2
:105D4C00007CFEF7AFFE20EAE07008BD08B5007CD1
:105D5C00FEF780FE20EAE07008BD08B5007CFEF777
:105D6C0089FE30EA200028BF4FF0FF3008BD08B58F
:105D7C00007CFEF777FE30EA200028BF4FF0FF30A2
:105D8C0008BD007CFEF77EBE10B51421044600F061
:105D9C00ECF9204610BD70B5457C04460E4625B97D
:105DAC00007CFEF77FFE002805DD3146207CBDE837
:105DBC007040FEF747BE284670BD000010B5044683
:105DCC0008461146002262604FF47A72A260054ABE
:105DDC0022600122207462741A46FEF72BFE2046C4
:105DEC0010BD00BF487A0D00007CFEF753BE0000CA
:105DFC0038B50C4D296811F0010411D12846FEF775
:105E0C004AF968B1084A094B09482146FFF7D6FF01
:105E1C002846FEF745F9074A0749054800F0A0F95E
:105E2C00034838BD44E6032048E60320C0E50320C0
:105E3C00ACE50320E8E20320455D0D00417470479A
:105E4C00704708B50021007CFEF74CFE30EA2000BC
:105E5C0028BF4FF0FF3008BD08B50121007CFEF7CC
:105E6C0041FE30EA200028BF4FF0FF3008BD08B5D6
:105E7C00007CFEF72FFE20EAE07008BD08B5007C20
:105E8C00FEF720FE20EAE07008BD007CFEF73ABE6B
:105E9C0010B51421044600F068F9204610BD38B541
:105EAC000446007C0D46FEF715FE002801DC607CE4
:105EBC0028B12946207CFEF71DFE20EAE07038BD93
:105ECC0010B50446002363604FF47A73A360054B4E
:105EDC00236001230846217463741146FEF7EAFD22
:105EEC00204610BD787A0D0010B51422044600210E
:105EFC0000F063FF204610BD30B50E4D87B001A8F1
:105F0C00FFF7F2FF296811F0010410D12846FEF7C3
:105F1C00C2F860B101AA21460748FFF7D1FF284615
:105F2C00FEF7BEF8054A0649034800F019F9024885
:105F3C0007B030BDCCE60320D0E60320E8E2032016
:105F4C004D5E0D0008B50C4B33B1FFF7D5FF036860
:105F5C001B699847002809DC084B63B1FFF748FF21
:105F6C0003681B699847002803DC08BDAFF3008069
:105F7C00F2E7AFF3008008BD000000000000000055
:105F8C0008B5FFF7DFFFFEF79DFC014B186008BD5D
:105F9C00E8E6032007B5002300931A466FF077015B
:105FAC00FEF702FE03B05DF804FB000007B5438862
:105FBC000A2B08D0502B09D1094B1B683BB103B0FD
:105FCC005DF804EB1847FFF7E5FF06E000230093AC
:105FDC001A466FF07701FEF7E7FD03B05DF804FB9E
:105FEC00E4E6032010B5FEF765FC044600F0EEFE77
:105FFC00074B13B12046AFF3008000210448FEF795
:10600C002FFE00210348BDE81040FEF7C3BD00BFC2
:10601C0000000000B95F0D0010B504460F48FFF7F3
:10602C000FFD28B1A4F10B03022B01D8002010BDE9
:10603C0000F054F8FFF79CFA08B1012CF6D9FFF7E1
:10604C00D7FEFFF7D1FE18B1A4F10903012BEDD94E
:10605C00232C8CBF0020012010BD00BF0CE70320B7
:10606C00232838B504460D460AD8FF2908D0FFF777
:10607C00D3FF28B129462046BDE83840FEF762BC64
:10608C0038BD38B504460D46FEF764FCFF2810D029
:10609C00062804D84D2323FA00F0C30709D4204660
:1060AC00FFF7BAFF28B129462046BDE83840FEF775
:1060BC0059BC38BD10B5074C2368DB0708D4204603
:1060CC00FDF7E9FF20B1FEF70DFC2046FDF7E8FFD8
:1060DC00014810BDECE60320F0E6032038B50B4D6B
:1060EC00296811F001040FD12846FDF7D4FF58B1EF
:1060FC0021460748FFF72AFA2846FDF7D1FF054A43
:10610C000549034800F02CF8014838BDF4E603209B
:10611C00F8E60320E8E2032001550D0070B50C4CA5
:10612C000C4E0D4D00212046FFF776FC20460B4C03
:10613C003246294600F014F801212046FFF76CFC8A
:10614C00324629462046BDE8704000F009B800BF31
:10615C000CE70320E8E20320155A0D001CE703208E
:10616C000B460146184600F017BDFDF790BF08B569
:10617C00FEF7F6FD244B1A68D0075CBF01221A60AB
:10618C00224B1A68D1075CBF01221A60204B1A6897
:10619C00D2075CBF01221A601E4B1A68D0075CBF85
:1061AC0001221A601C4B1A68D1075CBF01221A60CD
:1061BC001A4B1A68D2075CBF01221A60184B1A6876
:1061CC00D0075CBF01221A60164B1A68D1075CBF5E
:1061DC0001221A60144B1A68D2075CBF01221A60A4
:1061EC00124B1A68D0075CBF01221A60104B1A6858
:1061FC00D1075CBF01221A600E4B1A68D2075CBF34
:10620C0001221A60704700BF58E7032054E70320AF
:10621C0050E703204CE7032048E7032044E7032022
:10622C0040E703203CE7032038E7032034E7032052
:10623C0030E703202CE70320184B1A68D1075CBF0A
:10624C0001221A60164B1A68D2075CBF01221A6031
:10625C00144B1A68D0075CBF01221A60124B1A68E3
:10626C00D1075CBF01221A60104B1A68D2075CBFC1
:10627C0001221A600E4B1A68D0075CBF01221A600B
:10628C000C4B1A68D1075CBF01221A600A4B1A68C2
:10629C00D2075CBF01221A60704700BF78E7032069
:1062AC0074E7032070E703206CE7032068E7032002
:1062BC0064E7032060E703205CE70320184B1A68AF
:1062CC00D1075CBF01221A60164B1A68D2075CBF5B
:1062DC0001221A60144B1A68D0075CBF01221A60A5
:1062EC00124B1A68D1075CBF01221A60104B1A6856
:1062FC00D2075CBF01221A600E4B1A68D0075CBF34
:10630C0001221A600C4B1A68D1075CBF01221A607B
:10631C000A4B1A68D2075CBF01221A60704700BF93
:10632C0098E7032094E7032090E703208CE70320F1
:10633C0088E7032084E7032080E703207CE7032021
:10634C00244B1A68D0075CBF01221A60224B1A68D2
:10635C00D1075CBF01221A60204B1A68D2075CBFC0
:10636C0001221A601E4B1A68D0075CBF01221A600A
:10637C001C4B1A68D1075CBF01221A601A4B1A68B1
:10638C00D2075CBF01221A60184B1A68D0075CBF99
:10639C0001221A60164B1A68D1075CBF01221A60E1
:1063AC00144B1A68D2075CBF01221A60124B1A6890
:1063BC00D0075CBF01221A60104B1A68D1075CBF72
:1063CC0001221A600E4B1A68D2075CBF01221A60B8
:1063DC00704700BFC8E70320C4E70320C0E70320D1
:1063EC00BCE70320B8E70320B4E70320B0E70320A1
:1063FC00ACE70320A8E70320A4E70320A0E70320D1
:10640C009CE7032081F0004102E000BF83F00043D1
:10641C0030B54FEA41044FEA430594EA050F08BF33
:10642C0090EA020F1FBF54EA000C55EA020C7FEAF7
:10643C00645C7FEA655C00F0E2804FEA5454D4EB74
:10644C005555B8BF6D420CDD2C4480EA020281EA3E
:10645C00030382EA000083EA010180EA020281EA76
:10646C000303362D88BF30BD11F0004F4FEA0131C8
:10647C004FF4801C4CEA113102D0404261EB4101D7
:10648C0013F0004F4FEA03334CEA133302D052425D
:10649C0063EB430394EA050F00F0A780A4F1010419
:1064AC00D5F1200E0DDB02FA0EFC22FA05F2801853
:1064BC0041F1000103FA0EF2801843FA05F3594139
:1064CC000EE0A5F120050EF1200E012A03FA0EFCB8
:1064DC0028BF4CF0020C43FA05F3C01851EBE371E2
:1064EC0001F0004507D54FF0000EDCF1000C7EEBFF
:1064FC0000006EEB0101B1F5801F1BD3B1F5001F3D
:10650C000CD349085FEA30004FEA3C0C04F101045B
:10651C004FEA445212F5800F80F09A80BCF1004F84
:10652C0008BF5FEA500C50F1000041EB045141EA06
:10653C00050130BD5FEA4C0C404141EB010111F407
:10654C00801FA4F10104E9D191F0000F04BF0146B2
:10655C000020B1FA81F308BF2033A3F10B03B3F190
:10656C0020020CDA0C3208DD02F1140CC2F10C0220
:10657C0001FA0CF021FA02F10CE002F11402D8BF7E
:10658C00C2F1200C01FA02F120FA0CFCDCBF41EA4A
:10659C000C019040E41AA2BF01EB0451294330BD19
:1065AC006FEA04041F3C1CDA0C340EDC04F11404F6
:1065BC00C4F1200220FA04F001FA02F340EA0300CD
:1065CC0021FA04F345EA030130BDC4F10C04C4F113
:1065DC00200220FA02F001FA04F340EA03002946F3
:1065EC0030BD21FA04F0294630BD94F0000F83F43D
:1065FC00801306BF81F480110134013D4EE77FEA20
:10660C00645C18BF7FEA655C29D094EA050F08BF6B
:10661C0090EA020F05D054EA000C04BF194610464C
:10662C0030BD91EA030F1EBF0021002030BD5FEA90
:10663C00545C05D14000494128BF41F0004130BDB8
:10664C0014F580043CBF01F5801130BD01F000450C
:10665C0045F0FE4141F470014FF0000030BD7FEA7F
:10666C00645C1ABF194610467FEA655C1CBF0B467A
:10667C00024650EA013406BF52EA033591EA030F91
:10668C0041F4002130BD00BF90F0000F04BF002189
:10669C00704730B54FF4806404F132044FF00005BC
:1066AC004FF0000150E700BF90F0000F04BF002135
:1066BC00704730B54FF4806404F1320410F000459B
:1066CC0048BF40424FF000013EE700BF42004FEA96
:1066DC00E2014FEA31014FEA02701FBF12F07F4313
:1066EC0093F07F4F81F06051704792F0000F14BF10
:1066FC0093F07F4F704730B54FF4607401F0004554
:10670C0021F0004120E700BF50EA010208BF7047AA
:10671C0030B54FF000050AE050EA010208BF70479F
:10672C0030B511F0004502D5404261EB41014FF408
:10673C00806404F132045FEA915C3FF4DCAE4FF00C
:10674C0003025FEADC0C18BF03325FEADC0C18BFF3
:10675C00033202EBDC02C2F1200300FA03FC20FA44
:10676C0002F001FA03FE40EA0E0021FA02F1144491
:10677C00C1E600BF70B54FF0FF0C4CF4E06C1CEAA6
:10678C0011541DBF1CEA135594EA0C0F95EA0C0F1B
:10679C0000F0DEF82C4481EA030621EA4C5123EA8E
:1067AC004C5350EA013518BF52EA033541F48011BD
:1067BC0043F4801338D0A0FB02CE4FF00005E1FB70
:1067CC0002E506F00042E0FB03E54FF00006E1FBBA
:1067DC0003569CF0000F18BF4EF0010EA4F1FF04FD
:1067EC00B6F5007F64F5407404D25FEA4E0E6D413D
:1067FC0046EB060642EAC62141EA55514FEAC5204E
:10680C0040EA5E504FEACE2EB4F1FD0C88BFBCF5C9
:10681C00E06F1ED8BEF1004F08BF5FEA500E50F17A
:10682C00000041EB045170BD06F0004646EA010140
:10683C0040EA020081EA0301B4EB5C04C2BFD4EB72
:10684C000C0541EA045170BD41F480114FF0000E6B
:10685C00013C00F3AB8014F1360FDEBF002001F0D9
:10686C00004170BDC4F10004203C35DA0C341BDC53
:10687C0004F11404C4F1200500FA05F320FA04F025
:10688C0001FA05F240EA020001F0004221F0004159
:10689C0010EBD37021FA04F642EB06015EEA430ECC
:1068AC0008BF20EAD37070BDC4F10C04C4F12005FC
:1068BC0000FA04F320FA05F001FA04F240EA0200AF
:1068CC0001F0004110EBD37041F100015EEA430E80
:1068DC0008BF20EAD37070BDC4F1200500FA05F2A0
:1068EC004EEA020E20FA04F301FA05F243EA02031F
:1068FC0021FA04F001F0004121FA04F220EA02002E
:10690C0000EBD3705EEA430E08BF20EAD37070BD73
:10691C0094F0000F0FD101F00046400041EB010153
:10692C0011F4801F08BF013CF7D041EA060195F035
:10693C00000F18BF704703F00046520043EB0303EF
:10694C0013F4801F08BF013DF7D043EA06037047DC
:10695C0094EA0C0F0CEA135518BF95EA0C0F0CD0E7
:10696C0050EA410618BF52EA4306D1D181EA03012D
:10697C0001F000414FF0000070BD50EA410606BF27
:10698C001046194652EA430619D094EA0C0F02D16C
:10699C0050EA013613D195EA0C0F05D152EA0336B1
:1069AC001CBF104619460AD181EA030101F00041CF
:1069BC0041F0FE4141F470014FF0000070BD41F018
:1069CC00FE4141F4780170BD70B54FF0FF0C4CF4F2
:1069DC00E06C1CEA11541DBF1CEA135594EA0C0F11
:1069EC0095EA0C0F00F0A7F8A4EB050481EA030E5E
:1069FC0052EA03354FEA013100F088804FEA033345
:106A0C004FF0805545EA131343EA12634FEA022212
:106A1C0045EA111545EA10654FEA00260EF00041D3
:106A2C009D4208BF964244F1FD0404F5407402D225
:106A3C005B084FEA3202B61A65EB03055B084FEAB6
:106A4C0032024FF480104FF4002CB6EB020E75EBB3
:106A5C00030E22BFB61A754640EA0C005B084FEADB
:106A6C003202B6EB020E75EB030E22BFB61A754658
:106A7C0040EA5C005B084FEA3202B6EB020E75EBA3
:106A8C00030E22BFB61A754640EA9C005B084FEA1B
:106A9C003202B6EB020E75EB030E22BFB61A754628
:106AAC0040EADC0055EA060E18D04FEA051545EA17
:106ABC0016754FEA06164FEAC30343EA52734FEAC0
:106ACC00C2025FEA1C1CC0D111F4801F0BD141EA39
:106ADC0000014FF000004FF0004CB6E711F4801F9E
:106AEC0004BF01430020B4F1FD0C88BFBCF5E06F7E
:106AFC003FF6AFAEB5EB030C04BFB6EB020C5FEA8E
:106B0C00500C50F1000041EB045170BD0EF0004EE2
:106B1C004EEA113114EB5C04C2BFD4EB0C0541EA14
:106B2C00045170BD41F480114FF0000E013C90E611
:106B3C0045EA060E8DE60CEA135594EA0C0F08BFD5
:106B4C0095EA0C0F3FF43BAF94EA0C0F0AD150EAD4
:106B5C0001347FF434AF95EA0C0F7FF425AF104667
:106B6C0019462CE795EA0C0F06D152EA03353FF48F
:106B7C00FDAE1046194622E750EA410618BF52EA0C
:106B8C0043067FF4C5AE50EA41047FF40DAF52EAE0
:106B9C0043057FF4EBAE12E710B5054C13462CB150
:106BAC000A4601460220AFF3008010BD204610BDFE
:106BBC000000000038B5074B1C68E36B05461BB999
:106BCC002420FEF7A5F8E063E16B2846BDE83840C9
:106BDC0000F002B894E203202DE9F0410C46804607
:106BEC0000F09CFC21460746404600F09BFC4669A1
:106BFC0006F26C76B307044605D1642296FBF2F3D9
:106C0C0002FB13634BB94FF4C87596FBF5F305FB08
:106C1C001365B5FA85F35B0900E001235F4A302563
:106C2C0005FB032500F0AEFA00F0AEFA5C4B1B68D6
:106C3C00F3B17B689E4205D13968D8F80030FA6907
:106C4C0041B90AE0304600F0F5F90028F4D14FF0D4
:106C5C00FF330DE0934208DB01E0934207DABA6B95
:106C6C009342ACBF0023012302E0002300E0012388
:106C7C002362236A012B0CBFF96B396A4FF46163F1
:106C8C003C2091FBF3F603FB1613616893FBF0F2C7
:106C9C0000FB12302368891AA26861601B1A921BD0
:106CAC003B2B2360A26003DD013161603C3B04E0BF
:106CBC00002B03DA013961603C33236063683B2BA2
:106CCC0003DD0132A2603C3B04E0002B03DA013A05
:106CDC00A2603C336360A368172B22DDE2690132AA
:106CEC00E261A2690132062AC8BF0022A261E268F1
:106CFC00183B0132A3602369E26055F823108A42E5
:106D0C0046DD01330C2B0CBF63692361A2EB01023E
:106D1C00E26001BF013300222261636108BFE261BE
:106D2C0036E0002B34DAE269013AE261A269013AF9
:106D3C0048BF0622A261E2681833013AE260A36000
:106D4C0032BB2369013B01D423611DE00B2323617A
:106D5C0063695A1E12F0030F626103F26B7305D163
:106D6C00642193FBF1F201FB12324AB94FF4C87162
:106D7C0093FBF1F201FB1233B3FA83F35B0900E0EE
:106D8C00012303F5B673E361236955F82330E360FF
:106D9C0000F0F9F92046BDE8F08100BF087C0D0039
:106DAC00E8E7032010B5431E0A44914204D011F8C1
:106DBC00014B03F8014FF8E710BD02440346934220
:106DCC0002D003F8011BFAE77047000038B5124BEC
:106DDC001C68A36B0546D3B91820FDF799FF43F245
:106DEC000E33A06303804AF6CD33438041F2342343
:106DFC0083804EF26D63C3804DF6EC6303810523F3
:106E0C0043810B23838101220023C0E90423A36B5C
:106E1C0000221D615A6138BD94E20320194B10B554
:106E2C001C68A36BD3B91820FDF772FF43F20E3325
:106E3C00A06303804AF6CD33438041F23423838030
:106E4C004EF26D63C3804DF6EC63038105234381E1
:106E5C000B23838101220023C0E90423A16B0A4C7C
:106E6C000B694869094A5C4302FB0040A3FB0223FF
:106E7C000132034443F10003C1E9042323F0004031
:106E8C0010BD00BF94E203202DF451582D7F954C7A
:106E9C0010F8012B11F8013B012A28BF9A42F7D0B8
:106EAC00D01A7047034611F8012B03F8012B002A66
:106EBC00F9D17047024B0146186800F003B800BFC7
:106ECC0094E2032070B5064608460C4600F00DF817
:106EDC00451C29463046FDF74BFF064618B12A469D
:106EEC002146FFF75FFF304670BD034613F8012BB8
:106EFC00002AFBD1181A0138704730B582B1451EF3
:106F0C00013915F8013F11F8014FA34206D1EC43AA
:106F1C001444E04201D0002BF3D11C46181B30BDA9
:106F2C00104630BD2DE9F04780463C48D0F8009023
:106F3C000E46354615F8014B09EB0400407800F07D
:106F4C00080000F0FF0708B12E46F2E72D2C03D104
:106F5C00B51C7478012703E02B2C04BF7478B51C86
:106F6C0013B1102B0AD153E0302C4FD1287800F0FC
:106F7C00DF00582845D16C78102302354FF0FF3CC8
:106F8C000026BCFBF3FC03FB0CFA6FEA0A0A304642
:106F9C0009EB040E9EF801E01EF0040F01D0303C0A
:106FAC000BE01EF0030E1AD0BEF1010F0CBF4FF018
:106FBC00370E4FF0570ECEEB0404A3420FDD002E1C
:106FCC0008DB604506D801D1544503DC03FB0040C7
:106FDC00012601E04FF0FF3615F8014BD8E7002EE3
:106FEC0007DA2223C8F800304FF0FF302AB9BDE889
:106FFC00F08707B1404272B106B1691E1160BDE85D
:10700C00F0873024002BB9D10823B7E70A23B5E762
:10701C00302CABD0B2E7BDE8F08700BF30E20320E4
:10702C0013460A46014602480068FFF77BBF00BFC3
:10703C0094E203202DE9F74F044600F06FFA40F27A
:10704C00B1739C4240F396806FF4F663E318A4F29C
:10705C00B2729B1040F26D1505FB0235A4F26D72F5
:10706C006FF0630392FBF3F36FF4C8622B44A51823
:10707C004FF4C87295FBF2F51D44642394FBF2F7B0
:10708C0094FBF3F602FB174703FB164600F138039B
:10709C00B7FA87FE019304F0030344604FEA5E1EC7
:1070AC00014600934FF0070C0B7A4A2B0ED14B691B
:1070BC00009AEC1802B906B927B93B2BD4BF0023B0
:1070CC00012300E000232344013B3FE0442B02D189
:1070DC004B692B443AE0009B2BB9002E0CBFF046B9
:1070EC004FF0010800E0F046244BCC68302202FB44
:1070FC000838A8F1040AA9460123A34204DA5AF875
:10710C0004BF0133D944F8E709F1040393FBFCFBFA
:10711C00CBEBCB0A012CCAEB030A4B69B8BF012499
:10712C0004F18044B3EB0A0A0B6904F1FF3403F158
:10713C00FF3348BF0AF1070AC3EBC30358F82440D6
:10714C005344A34201DB073BFBE74B448C690C4ADD
:10715C0002FB03430C6A234441F81C3F019B9942F8
:10716C00A2D1C369826B9342ACBF0023012303609D
:10717C00012000E0002003B0BDE8F08F087C0D007A
:10718C008051010070477047014B186800F002B83D
:10719C0094E203202DE9F04F8DB0074600F0BEF9C4
:1071AC00B049B14E0446384600F0B0F9054660B916
:1071BC00AE4BAF4A1860AF4B1860AF4B30681A60DB
:1071CC005A60FDF7ADFD356048E1316879B930683A
:1071DC00FDF7A6FD2846FFF788FE411C3846FDF753
:1071EC00C7FD306048B12946FFF75CFE05E0FFF7AC
:1071FC004FFE002800F03281E9E72B789F4AA04926
:10720C003A2B08BF01350AAE33462846FDF798FDE8
:10721C00002840F323810A9BEF18EB5C2D2B03D144
:10722C0001374FF0FF3503E02B2B08BF0137012549
:10723C000DF1200A0DF11E0B4FF000080396CDF84E
:10724C0008A00196CDF800B0334607AA8D49ADF8D9
:10725C001E803846ADF82080FDF772FD404540F3A6
:10726C00FD80BDF81E20BDF82030DFF824923C21B3
:10727C0001FB0233BDF81C204FF4616101FB0233AA
:10728C005D4325627C4D7D4B2B600A9B7C491F44E2
:10729C004A4633463846FDF753FD404508DC2B681B
:1072AC006B60724B226A1A60724BC3F80080D5E097
:1072BC000A9BC5F80490FD18FB5C2D2B03D10135FE
:1072CC004FF0FF3703E02B2B08BF013501270023BC
:1072DC00ADF81C30ADF81E30ADF820300A93039693
:1072EC00CDF808A00196CDF800B0334607AA654941
:1072FC002846FDF725FD002804DC236AA3F561630D
:10730C00E3630EE0BDF81E20BDF820303C2101FBEC
:10731C000233BDF81C204FF4616101FB02335F4363
:10732C00E7630A9B27461D444FF000092B782C2B52
:10733C0008BF013595F80080B8F14D0F26D10DF13D
:10734C002603029309AB00930396019633460DF185
:10735C0022024D492846FDF7F3FC03287ED1BDF8E7
:10736C0022104B1E0B2B79D8BDF82420531E042B56
:10737C0074D8BDF82630062B70D887F80880F960D1
:10738C003A617B610A9B05EB03082AE0B8F14A0FCE
:10739C0006BF0135434644230A220BA92846059310
:1073AC00FFF73EFEDDF82C80ADF826004545059B29
:1073BC0014D14D23B9F1000F07D123720323E360DD
:1073CC0002232361C4F814900BE084F824300B23BF
:1073DC00A3620123E3620023236302E080B23B72C9
:1073EC0078610223ADF81C300023ADF81E30ADF8E7
:1073FC0020300A9398F800302F2B0BD10396CDF840
:10740C0008A00196CDF800B0334607AA1F494046A4
:10741C00FDF796FCBDF81E20BDF820303C2101FB89
:10742C000233BDF81C204FF4616101FB0233BB61D8
:10743C000A9D09F10109B9F1020F454407F11C0736
:10744C007FF474AF6068FFF7F5FD084B226A1A6091
:10745C00E36B9B1A074A18BF012313600DB0BDE8FC
:10746C00F08F00BF687C0D00E4E70320ECE70320FD
:10747C006B7C0D00E8E7032098E20320D7E703209C
:10748C006F7C0D00927C0D007E7C0D00917C0D00BC
:10749C00CCE703202DE9F84F07468B46904600F0C9
:1074AC00D9F8194B1D689A463DB15C46234613F832
:1074BC00012B42B13D2A1C46F8D1384600F0CBF8DE
:1074CC000020BDE8F88FCBEB0404A94659F8040B57
:1074DC000028F2D022465946FFF70FFD88B959F81B
:1074EC00043C1E191B5D3D2B0BD1DAF80030ED1A54
:1074FC00AD103846C8F8005000F0ADF8701CBDE86F
:10750C00F88F4D46E1E700BFE0E2032007B501AA82
:10751C00FFF7C0FF03B05DF804FB000000487047A4
:10752C00A0E203200268474BF0B592FBF3F403FB97
:10753C001422002ABCBF02F5A83202F5C0724FF427
:10754C00616004F52F2492FBF0F300FB13224FF043
:10755C003C00ACBF04F66C2404F66B248B6092FBED
:10756C00F0F300FB13224B600A600723E21C92FB32
:10757C00F3F3C3EBC303D31A8B61334B334D94FB3F
:10758C00F5F503FB054448F6AC62B4FBF2F2224479
:10759C0040F2B457B4FBF7F3D21A2D48B4FBF0F019
:1075AC0048F69466131AB3FBF6F6344440F26D12A7
:1075BC00B3FBF2F0B3FBF7F3E31A02FB103399249D
:1075CC0003EB83020232B2FBF4F20A2A04FB02F44C
:1075DC0004F102064FF00504B6FBF4F434BF0226A6
:1075EC006FF0090616444FF4C87202FB05055F1CC8
:1075FC00012E98BF0135B3F5997FA7EB040702D391
:10760C00A3F5997214E0820705D16424B0FBF4F25F
:10761C0004FB12024AB94FF4C872B0FBF2F402FB3D
:10762C001400B0FA80F2520900E001223B331A44F4
:10763C00A5F26C750023CA614D610E61CF600B62BF
:10764C000846F0BD805101004FC5FDFFB13A020064
:10765C00B03A0200704770471D400D0059400D00B4
:10766C0085400D0089400D000000000053746172CC
:10767C00747570205375636365737366756C000065
:10768C0000000000000000000000000000000000EE
:10769C0000000000000000000000000000000000DE
:1076AC0000000000000000000000000025342E3116
:1076BC00662025250041542B4346554E3D31360D51
:1076CC000A006C6F77506F7765724D6F646500526E
:1076DC00656C65617365004D6561737572652D4EE2
:1076EC006F77004C6F77506F7765724D6F646500E4
:1076FC00537461727475700054686520617665729C
:10770C0061676520536F696C4D6F69737475726531
:10771C002069732025342E306625252077697468FE
:10772C002025692073616D706C657300486F7572EC
:10773C006C79205265706F72740053616D706C655A
:10774C002025342E306625252C2041766572616704
:10775C00652025342E306625252077697468202510
:10776C00692073616D706C6573004D696E7574651D
:10777C002053616D706C6500476F696E6720746F84
:10778C0020536C65657000537461746500457272AA
:10779C006F72205374617465202D2052657365746B
:1077AC00004C6F7720506F776572004E6F726D6171
:1077BC006C204F7065726174696F6E7300556E6BDF
:1077CC006E6F776E004E6F6E6500576946690047A5
:1077DC00534D00554D54530043444D41004C5445BA
:1077EC00004945454538303231353400312E303082
:1077FC00000000000000000000000000374E0D00EB
:10780C002D4E0D00234E0D00D94D0D00174E0D00C1
:10781C000B4E0D00FF4D0D00F74D0D00ED4D0D0005
:10782C00E34D0D0045580D00000000000000000065
:10783C00714E0D00774E0D00CD4E0D00854E0D0096
:10784C00734E0D000000000000000000E3540D001A
:10785C00D9540D00CF540D00C5540D00B9540D0072
:10786C00AD540D00A1540D0099540D008F540D0012
:10787C0085540D0045580D0000000000000000006C
:10788C0001550D004B550D0023550D0003550D00F2
:10789C002B550D0033550D003B550D0043550D0078
:1078AC00000000000000000095550D0085550D00EE
:1078BC0087550D0066006C6E00666E00636F646524
:1078CC000064657461696C00253031307520005D91
:1078DC0020002564002C200028293A2000205B0081
:1078EC00636F6465203D20002569006465746169DF
:1078FC006C73203D20006261756400536572696190
:10790C006C0053657269616C31007479706500703C
:10791C006172616D00636D6400696400686E64007F
:10792C007374726D0066696C74006C766C006164C3
:10793C006448616E646C65720072656D6F76654843
:10794C00616E646C657200656E756D48616E646C19
:10795C00657273004A534F4E53747265616D4C6F70
:10796C006748616E646C657200617070006E6F6E5A
:10797C006500747261636500696E666F0077617291
:10798C006E006572726F720070616E696300616C7B
:10799C006C0000000000000000000000D7560D0035
:1079AC00CD560D00C3560D00B9560D00AD560D0049
:1079BC00A1560D0095560D008D560D0083560D00E9
:1079CC0079560D0045580D00000000000000000025
:1079DC00DD570D00E7570D00F1570D00FB570D005B
:1079EC0005580D0011580D001D580D0029580D009B
:1079FC0031580D003B580D0045580D00000000009B
:107A0C0000000000155A0D00175A0D00252B3033BD
:107A1C00643A253032750025592D256D2D25645479
:107A2C0025483A254D3A2553257A006173637469CC
:107A3C006D6500000000000000000000455D0D00B9
:107A4C00955D0D00A35D0D0025590D00595D0D00D0
:107A5C007B5D0D00675D0D008F5D0D00475D0D00BA
:107A6C004B5D0D0000000000000000004D5E0D009D
:107A7C009D5E0D00AB5E0D0025590D00895E0D005D
:107A8C004F5E0D00655E0D00975E0D007B5E0D0078
:107A9C00495E0D00002020202020202020202828B6
:107AAC0028282820202020202020202020202020B2
:107ABC0020202020208810101010101010101010F2
:107ACC001010101010040404040404040404041022
:107ADC0010101010101041414141414101010101B0
:107AEC00010101010101010101010101010101017A
:107AFC001010101010104242424242420202020286
:107B0C000202020202020202020202020202020249
:107B1C0010101010200000000000000000000000F9
:107B2C000000000000000000000000000000000049
:107B3C000000000000000000000000000000000039
:107B4C000000000000000000000000000000000029
:107B5C000000000000000000000000000000000019
:107B6C000000000000000000000000000000000009
:107B7C0000000000000000000000000000000000F9
:107B8C0000000000000000000000000000000000E9
:107B9C0000000000000000000000000000000000D9
:107BAC0000000000000000000000000000000000C9
:107BBC0000000000000000000000000000000000B9
:107BCC0000000000000000000000000000000000A9
:107BDC000000000000000000000000000000000099
:107BEC000000000000000000000000000000000089
:107BFC000000000000000000430000001F00000017
:107C0C001C0000001F0000001E0000001F000000F0
:107C1C001E0000001F0000001F0000001E000000DE
:107C2C001F0000001E0000001F0000001F000000CD
:107C3C001D0000001F0000001E0000001F000000BF
:107C4C001E0000001F0000001F0000001E000000AE
:107C5C001F0000001E0000001F000000545A0047C7
:107C6C004D54002531305B5E302D392C2B2D5D258C
:107C7C006E004D256875256E2E256875256E2E2592
:107C8C006875256E002F256875256E3A2568752553
:107C9C006E3A256875256E001D470D005B480D007A
:107CAC00C94D0D00414E0D00ED540D0069560D00EF
:107CBC008D570D0011590D00F9590D000D5C0D007B
:107CCC00315D0D0029610D0081610D0045620D00D3
:107CDC00C9620D004D630D000000000000000000A3
:047CEC000000000094
:107CF000F8770D00A8610000377A0D00A07A0D001A
:107D000000000000A47B0D00C47B0D00E47B0D008F
:107D10000000000000000000000000000000000063
:107D2000047C0D00000000000000000000000000C6
:107D30000000000000000000000000000000000043
:107D40000000000000000000000000000000000033
:107D50000000000000000000000000000000000023
:107D600034E203206B7C0D006B7C0D0001000000F1
:107D7000000000004A0000000000000000000000B9
:107D800000000000000000000000000000000000F3
:107D90004A00000000000000000000000000000099
:107DA000000000000000000000000000F0E70320D9
:107DB000FFFFFFFF00000102030405060708090A90
:107DC0000B0C0D0E0F101112131415161718191A8B
:087DD0001B1C1D1E1F202800D2
:047DD8007856341293
:04000003D000401CCD
:00000001FF
